{
  "_format": "hh-sol-artifact-1",
  "contractName": "FHE_BLOGCrutch",
  "sourceName": "contracts/FheBlogCrutch.sol",
  "abi": [
    {
      "inputs": [],
      "stateMutability": "nonpayable",
      "type": "constructor"
    },
    {
      "inputs": [],
      "name": "ECDSAInvalidSignature",
      "type": "error"
    },
    {
      "inputs": [
        {
          "internalType": "uint256",
          "name": "length",
          "type": "uint256"
        }
      ],
      "name": "ECDSAInvalidSignatureLength",
      "type": "error"
    },
    {
      "inputs": [
        {
          "internalType": "bytes32",
          "name": "s",
          "type": "bytes32"
        }
      ],
      "name": "ECDSAInvalidSignatureS",
      "type": "error"
    },
    {
      "inputs": [
        {
          "internalType": "address",
          "name": "sender",
          "type": "address"
        },
        {
          "internalType": "uint256",
          "name": "tokenId",
          "type": "uint256"
        },
        {
          "internalType": "address",
          "name": "owner",
          "type": "address"
        }
      ],
      "name": "ERC721IncorrectOwner",
      "type": "error"
    },
    {
      "inputs": [
        {
          "internalType": "address",
          "name": "operator",
          "type": "address"
        },
        {
          "internalType": "uint256",
          "name": "tokenId",
          "type": "uint256"
        }
      ],
      "name": "ERC721InsufficientApproval",
      "type": "error"
    },
    {
      "inputs": [
        {
          "internalType": "address",
          "name": "approver",
          "type": "address"
        }
      ],
      "name": "ERC721InvalidApprover",
      "type": "error"
    },
    {
      "inputs": [
        {
          "internalType": "address",
          "name": "operator",
          "type": "address"
        }
      ],
      "name": "ERC721InvalidOperator",
      "type": "error"
    },
    {
      "inputs": [
        {
          "internalType": "address",
          "name": "owner",
          "type": "address"
        }
      ],
      "name": "ERC721InvalidOwner",
      "type": "error"
    },
    {
      "inputs": [
        {
          "internalType": "address",
          "name": "receiver",
          "type": "address"
        }
      ],
      "name": "ERC721InvalidReceiver",
      "type": "error"
    },
    {
      "inputs": [
        {
          "internalType": "address",
          "name": "sender",
          "type": "address"
        }
      ],
      "name": "ERC721InvalidSender",
      "type": "error"
    },
    {
      "inputs": [
        {
          "internalType": "uint256",
          "name": "tokenId",
          "type": "uint256"
        }
      ],
      "name": "ERC721NonexistentToken",
      "type": "error"
    },
    {
      "inputs": [],
      "name": "InvalidInitialization",
      "type": "error"
    },
    {
      "inputs": [],
      "name": "NotInitializing",
      "type": "error"
    },
    {
      "anonymous": false,
      "inputs": [
        {
          "indexed": true,
          "internalType": "address",
          "name": "owner",
          "type": "address"
        },
        {
          "indexed": true,
          "internalType": "address",
          "name": "approved",
          "type": "address"
        },
        {
          "indexed": true,
          "internalType": "uint256",
          "name": "tokenId",
          "type": "uint256"
        }
      ],
      "name": "Approval",
      "type": "event"
    },
    {
      "anonymous": false,
      "inputs": [
        {
          "indexed": true,
          "internalType": "address",
          "name": "owner",
          "type": "address"
        },
        {
          "indexed": true,
          "internalType": "address",
          "name": "operator",
          "type": "address"
        },
        {
          "indexed": false,
          "internalType": "bool",
          "name": "approved",
          "type": "bool"
        }
      ],
      "name": "ApprovalForAll",
      "type": "event"
    },
    {
      "anonymous": false,
      "inputs": [
        {
          "indexed": false,
          "internalType": "uint64",
          "name": "version",
          "type": "uint64"
        }
      ],
      "name": "Initialized",
      "type": "event"
    },
    {
      "anonymous": false,
      "inputs": [
        {
          "indexed": true,
          "internalType": "address",
          "name": "from",
          "type": "address"
        },
        {
          "indexed": true,
          "internalType": "address",
          "name": "to",
          "type": "address"
        },
        {
          "indexed": true,
          "internalType": "uint256",
          "name": "tokenId",
          "type": "uint256"
        }
      ],
      "name": "Transfer",
      "type": "event"
    },
    {
      "inputs": [],
      "name": "DATA_TYPEHASH",
      "outputs": [
        {
          "internalType": "bytes32",
          "name": "",
          "type": "bytes32"
        }
      ],
      "stateMutability": "view",
      "type": "function"
    },
    {
      "inputs": [],
      "name": "DOMAIN_SEPARATOR",
      "outputs": [
        {
          "internalType": "bytes32",
          "name": "",
          "type": "bytes32"
        }
      ],
      "stateMutability": "view",
      "type": "function"
    },
    {
      "inputs": [],
      "name": "DOMAIN_TYPEHASH",
      "outputs": [
        {
          "internalType": "bytes32",
          "name": "",
          "type": "bytes32"
        }
      ],
      "stateMutability": "view",
      "type": "function"
    },
    {
      "inputs": [],
      "name": "TOKEN_URI",
      "outputs": [
        {
          "internalType": "string",
          "name": "",
          "type": "string"
        }
      ],
      "stateMutability": "view",
      "type": "function"
    },
    {
      "inputs": [
        {
          "internalType": "address",
          "name": "to",
          "type": "address"
        },
        {
          "internalType": "uint256",
          "name": "tokenId",
          "type": "uint256"
        }
      ],
      "name": "approve",
      "outputs": [],
      "stateMutability": "nonpayable",
      "type": "function"
    },
    {
      "inputs": [
        {
          "internalType": "address",
          "name": "owner",
          "type": "address"
        }
      ],
      "name": "balanceOf",
      "outputs": [
        {
          "internalType": "uint256",
          "name": "",
          "type": "uint256"
        }
      ],
      "stateMutability": "view",
      "type": "function"
    },
    {
      "inputs": [
        {
          "internalType": "uint256",
          "name": "nft",
          "type": "uint256"
        },
        {
          "internalType": "uint8",
          "name": "relayer_id",
          "type": "uint8"
        },
        {
          "internalType": "address",
          "name": "caller",
          "type": "address"
        },
        {
          "internalType": "uint64",
          "name": "_nonce",
          "type": "uint64"
        },
        {
          "internalType": "bytes",
          "name": "signature",
          "type": "bytes"
        }
      ],
      "name": "claimReward",
      "outputs": [],
      "stateMutability": "nonpayable",
      "type": "function"
    },
    {
      "inputs": [
        {
          "internalType": "uint256",
          "name": "nft",
          "type": "uint256"
        },
        {
          "internalType": "uint8",
          "name": "relayer_id",
          "type": "uint8"
        },
        {
          "internalType": "address",
          "name": "caller",
          "type": "address"
        },
        {
          "internalType": "uint256",
          "name": "_nonce",
          "type": "uint256"
        },
        {
          "internalType": "bytes",
          "name": "signature",
          "type": "bytes"
        }
      ],
      "name": "generateJwt",
      "outputs": [
        {
          "components": [
            {
              "internalType": "uint64[2]",
              "name": "p",
              "type": "uint64[2]"
            }
          ],
          "internalType": "struct DecryptedBlog",
          "name": "",
          "type": "tuple"
        }
      ],
      "stateMutability": "view",
      "type": "function"
    },
    {
      "inputs": [
        {
          "internalType": "uint256",
          "name": "tokenId",
          "type": "uint256"
        }
      ],
      "name": "getApproved",
      "outputs": [
        {
          "internalType": "address",
          "name": "",
          "type": "address"
        }
      ],
      "stateMutability": "view",
      "type": "function"
    },
    {
      "inputs": [
        {
          "internalType": "uint256",
          "name": "relayer_id",
          "type": "uint256"
        }
      ],
      "name": "getCid",
      "outputs": [
        {
          "internalType": "bytes",
          "name": "",
          "type": "bytes"
        }
      ],
      "stateMutability": "view",
      "type": "function"
    },
    {
      "inputs": [],
      "name": "getTokenCounter",
      "outputs": [
        {
          "internalType": "uint256",
          "name": "",
          "type": "uint256"
        }
      ],
      "stateMutability": "view",
      "type": "function"
    },
    {
      "inputs": [
        {
          "components": [
            {
              "internalType": "bytes[]",
              "name": "cid",
              "type": "bytes[]"
            },
            {
              "internalType": "uint64[2][]",
              "name": "p",
              "type": "uint64[2][]"
            },
            {
              "internalType": "bytes32[]",
              "name": "publicKey",
              "type": "bytes32[]"
            }
          ],
          "internalType": "struct BlogStorage",
          "name": "_data",
          "type": "tuple"
        },
        {
          "internalType": "string",
          "name": "_nft_name",
          "type": "string"
        },
        {
          "internalType": "string",
          "name": "_nft_short_name",
          "type": "string"
        }
      ],
      "name": "initialize",
      "outputs": [],
      "stateMutability": "nonpayable",
      "type": "function"
    },
    {
      "inputs": [
        {
          "internalType": "address",
          "name": "owner",
          "type": "address"
        },
        {
          "internalType": "address",
          "name": "operator",
          "type": "address"
        }
      ],
      "name": "isApprovedForAll",
      "outputs": [
        {
          "internalType": "bool",
          "name": "",
          "type": "bool"
        }
      ],
      "stateMutability": "view",
      "type": "function"
    },
    {
      "inputs": [],
      "name": "mintNft",
      "outputs": [],
      "stateMutability": "payable",
      "type": "function"
    },
    {
      "inputs": [],
      "name": "name",
      "outputs": [
        {
          "internalType": "string",
          "name": "",
          "type": "string"
        }
      ],
      "stateMutability": "view",
      "type": "function"
    },
    {
      "inputs": [],
      "name": "owner",
      "outputs": [
        {
          "internalType": "address",
          "name": "",
          "type": "address"
        }
      ],
      "stateMutability": "view",
      "type": "function"
    },
    {
      "inputs": [
        {
          "internalType": "uint256",
          "name": "tokenId",
          "type": "uint256"
        }
      ],
      "name": "ownerOf",
      "outputs": [
        {
          "internalType": "address",
          "name": "",
          "type": "address"
        }
      ],
      "stateMutability": "view",
      "type": "function"
    },
    {
      "inputs": [
        {
          "internalType": "address",
          "name": "",
          "type": "address"
        }
      ],
      "name": "reward",
      "outputs": [
        {
          "internalType": "uint256",
          "name": "",
          "type": "uint256"
        }
      ],
      "stateMutability": "view",
      "type": "function"
    },
    {
      "inputs": [],
      "name": "s_tokenCounter",
      "outputs": [
        {
          "internalType": "uint256",
          "name": "",
          "type": "uint256"
        }
      ],
      "stateMutability": "view",
      "type": "function"
    },
    {
      "inputs": [
        {
          "internalType": "address",
          "name": "from",
          "type": "address"
        },
        {
          "internalType": "address",
          "name": "to",
          "type": "address"
        },
        {
          "internalType": "uint256",
          "name": "tokenId",
          "type": "uint256"
        }
      ],
      "name": "safeTransferFrom",
      "outputs": [],
      "stateMutability": "nonpayable",
      "type": "function"
    },
    {
      "inputs": [
        {
          "internalType": "address",
          "name": "from",
          "type": "address"
        },
        {
          "internalType": "address",
          "name": "to",
          "type": "address"
        },
        {
          "internalType": "uint256",
          "name": "tokenId",
          "type": "uint256"
        },
        {
          "internalType": "bytes",
          "name": "data",
          "type": "bytes"
        }
      ],
      "name": "safeTransferFrom",
      "outputs": [],
      "stateMutability": "nonpayable",
      "type": "function"
    },
    {
      "inputs": [
        {
          "internalType": "address",
          "name": "operator",
          "type": "address"
        },
        {
          "internalType": "bool",
          "name": "approved",
          "type": "bool"
        }
      ],
      "name": "setApprovalForAll",
      "outputs": [],
      "stateMutability": "nonpayable",
      "type": "function"
    },
    {
      "inputs": [
        {
          "internalType": "bytes4",
          "name": "interfaceId",
          "type": "bytes4"
        }
      ],
      "name": "supportsInterface",
      "outputs": [
        {
          "internalType": "bool",
          "name": "",
          "type": "bool"
        }
      ],
      "stateMutability": "view",
      "type": "function"
    },
    {
      "inputs": [],
      "name": "symbol",
      "outputs": [
        {
          "internalType": "string",
          "name": "",
          "type": "string"
        }
      ],
      "stateMutability": "view",
      "type": "function"
    },
    {
      "inputs": [
        {
          "internalType": "uint256",
          "name": "tokenId",
          "type": "uint256"
        }
      ],
      "name": "tokenURI",
      "outputs": [
        {
          "internalType": "string",
          "name": "",
          "type": "string"
        }
      ],
      "stateMutability": "view",
      "type": "function"
    },
    {
      "inputs": [
        {
          "internalType": "address",
          "name": "from",
          "type": "address"
        },
        {
          "internalType": "address",
          "name": "to",
          "type": "address"
        },
        {
          "internalType": "uint256",
          "name": "tokenId",
          "type": "uint256"
        }
      ],
      "name": "transferFrom",
      "outputs": [],
      "stateMutability": "nonpayable",
      "type": "function"
    },
    {
      "inputs": [
        {
          "internalType": "uint256",
          "name": "nft",
          "type": "uint256"
        },
        {
          "internalType": "uint8",
          "name": "relayer_id",
          "type": "uint8"
        },
        {
          "internalType": "uint256",
          "name": "nonce",
          "type": "uint256"
        },
        {
          "internalType": "address",
          "name": "signer",
          "type": "address"
        },
        {
          "internalType": "bytes",
          "name": "signature",
          "type": "bytes"
        }
      ],
      "name": "verifySignature",
      "outputs": [
        {
          "internalType": "bool",
          "name": "",
          "type": "bool"
        }
      ],
      "stateMutability": "view",
      "type": "function"
    }
  ],
  "bytecode": "0x608060405234801561000f575f80fd5b5061001861001d565b6100cf565b7ff0c57e16840df040f15088dc2f81fe391c3923bec73e23a9662efc9c229c6a00805468010000000000000000900460ff161561006d5760405163f92ee8a960e01b815260040160405180910390fd5b80546001600160401b03908116146100cc5780546001600160401b0319166001600160401b0390811782556040519081527fc7f505b2f371ae2175ee4913f4499e1f2633a7b5936321eed1cdaeb6115181d29060200160405180910390a15b50565b6124b580620000dd5f395ff3fe6080604052600436106101a4575f3560e01c806365aec23f116100e7578063b88d4fde11610087578063c87b56dd11610062578063c87b56dd1461048f578063d319896e146104ae578063e985e9c5146104cd578063eb9600f214610533575f80fd5b8063b88d4fde1461043c578063ba071e1b1461045b578063c2229fea14610487575f80fd5b806378ce9035116100c257806378ce9035146103d65780638da5cb5b146103ea57806395d89b4114610409578063a22cb4651461041d575f80fd5b806365aec23f146103855780636e02007d146103a457806370a08231146103b7575f80fd5b806323b872dd116101525780633beaa6ab1161012d5780633beaa6ab146102fd57806342842e0e1461031c5780636352211e1461033b5780636353586b1461035a575f80fd5b806323b872dd146102aa578063247f024d146102c95780633644e515146102e8575f80fd5b8063095ea7b311610182578063095ea7b3146102345780630b21a83b1461025557806320606b7014610277575f80fd5b806301ffc9a7146101a857806306fdde03146101dc578063081812fc146101fd575b5f80fd5b3480156101b3575f80fd5b506101c76101c2366004611bf6565b610566565b60405190151581526020015b60405180910390f35b3480156101e7575f80fd5b506101f06105b7565b6040516101d39190611c5b565b348015610208575f80fd5b5061021c610217366004611c6d565b61066b565b6040516001600160a01b0390911681526020016101d3565b34801561023f575f80fd5b5061025361024e366004611c9f565b6106b1565b005b348015610260575f80fd5b506102695f5481565b6040519081526020016101d3565b348015610282575f80fd5b506102697f8b73c3c69bb8fe3d512ecc4cf759cc79239f7b179b0ffacaa9a75d522b39400f81565b3480156102b5575f80fd5b506102536102c4366004611cc7565b6106c0565b3480156102d4575f80fd5b506101c76102e3366004611dad565b610764565b3480156102f3575f80fd5b5061026960065481565b348015610308575f80fd5b506101f0610317366004611c6d565b61082c565b348015610327575f80fd5b50610253610336366004611cc7565b6108d9565b348015610346575f80fd5b5061021c610355366004611c6d565b6108f3565b348015610365575f80fd5b50610269610374366004611e1a565b60056020525f908152604090205481565b348015610390575f80fd5b5061025361039f366004611e78565b6108fd565b3480156103af575f80fd5b505f54610269565b3480156103c2575f80fd5b506102696103d1366004611e1a565b610da1565b3480156103e1575f80fd5b506101f0610e0c565b3480156103f5575f80fd5b5060075461021c906001600160a01b031681565b348015610414575f80fd5b506101f0610e28565b348015610428575f80fd5b50610253610437366004611f0d565b610e79565b348015610447575f80fd5b50610253610456366004611f46565b610e84565b348015610466575f80fd5b5061047a610475366004611faa565b610ea1565b6040516101d39190611ffe565b610253610f72565b34801561049a575f80fd5b506101f06104a9366004611c6d565b61101f565b3480156104b9575f80fd5b506102536104c8366004612051565b611040565b3480156104d8575f80fd5b506101c76104e7366004612091565b6001600160a01b039182165f9081527f80bb2b638cc20bc4d0a60d66940f3ab4a00c1d7b313497ca82fb0b4ab00793056020908152604080832093909416825291909152205460ff1690565b34801561053e575f80fd5b506102697f39f4c5dc4987ba10c22bccffc6aa83320b32e5efb44bc790d0fffcbb8492946281565b5f6001600160e01b031982166380ac58cd60e01b148061059657506001600160e01b03198216635b5e139f60e01b145b806105b157506301ffc9a760e01b6001600160e01b03198316145b92915050565b7f80bb2b638cc20bc4d0a60d66940f3ab4a00c1d7b313497ca82fb0b4ab007930080546060919081906105e9906120c2565b80601f0160208091040260200160405190810160405280929190818152602001828054610615906120c2565b80156106605780601f1061063757610100808354040283529160200191610660565b820191905f5260205f20905b81548152906001019060200180831161064357829003601f168201915b505050505091505090565b5f6106758261112b565b505f8281527f80bb2b638cc20bc4d0a60d66940f3ab4a00c1d7b313497ca82fb0b4ab007930460205260409020546001600160a01b03166105b1565b6106bc828233611182565b5050565b6001600160a01b03831615806106dd57506001600160a01b038216155b6107545760405162461bcd60e51b815260206004820152602e60248201527f4e6f6e5472616e736665727261626c65455243373231546f6b656e3a206e6f6e60448201527f207472616e736665727261626c6500000000000000000000000000000000000060648201526084015b60405180910390fd5b61075f83838361118f565b505050565b604080517f39f4c5dc4987ba10c22bccffc6aa83320b32e5efb44bc790d0fffcbb8492946260208083019190915281830188905260ff871660608301526001600160a01b038516608083015260a08083018790528351808403909101815260c08301845280519082012060065461190160f01b60e085015260e28401526101028084018290528451808503909101815261012290930190935281519101205f9190826108108286611212565b6001600160a01b03878116911614935050505095945050505050565b606060015f018281548110610843576108436120fa565b905f5260205f20018054610856906120c2565b80601f0160208091040260200160405190810160405280929190818152602001828054610882906120c2565b80156108cd5780601f106108a4576101008083540402835291602001916108cd565b820191905f5260205f20905b8154815290600101906020018083116108b057829003601f168201915b50505050509050919050565b61075f83838360405180602001604052805f815250610e84565b5f6105b18261112b565b7ff0c57e16840df040f15088dc2f81fe391c3923bec73e23a9662efc9c229c6a008054600160401b810460ff16159067ffffffffffffffff165f811580156109425750825b90505f8267ffffffffffffffff16600114801561095e5750303b155b90508115801561096c575080155b1561098a5760405163f92ee8a960e01b815260040160405180910390fd5b845467ffffffffffffffff1916600117855583156109b957845468ff00000000000000001916600160401b1785555b610a2a89898080601f0160208091040260200160405190810160405280939291908181526020018383808284375f9201919091525050604080516020601f8d018190048102820181019092528b815292508b91508a90819084018382808284375f9201919091525061123a92505050565b5f5b610a368b8061210e565b9050811015610c3d576001610a4b8c8061210e565b83818110610a5b57610a5b6120fa565b9050602002810190610a6d9190612154565b82546001810184555f938452602090932090920191610a8c91836121db565b50610a95611af0565b600280546001810182555f829052610ad3917f405787fa12a823e0f2b7631cc41b3ba8828b3321ca811111fa75cd3aa3bb5ace909101908390611b0e565b50610ae160208d018d612295565b83818110610af157610af16120fa565b9050604002015f60028110610b0857610b086120fa565b602002016020810190610b1b91906122db565b6002805484908110610b2f57610b2f6120fa565b5f91825260209182902001805467ffffffffffffffff191667ffffffffffffffff9390931692909217909155610b67908d018d612295565b83818110610b7757610b776120fa565b905060400201600160028110610b8f57610b8f6120fa565b602002016020810190610ba291906122db565b6002805484908110610bb657610bb66120fa565b5f918252602090912001805467ffffffffffffffff92909216600160401b026fffffffffffffffff0000000000000000199092169190911790556003610bff60408e018e61210e565b84818110610c0f57610c0f6120fa565b8354600180820186555f95865260209586902092909502939093013592019190915550919091019050610a2c565b505f8055604080518082018252600781527f466865426c6f67000000000000000000000000000000000000000000000000006020918201528151808301835260018152603160f81b9082015281517f8b73c3c69bb8fe3d512ecc4cf759cc79239f7b179b0ffacaa9a75d522b39400f918101919091527fc667c8a336a824636925e27af98cf090f0f09ad8b8a6e2513ecf75627dc4efcb918101919091527fc89efdaa54c0f20c7adf612882df0950f5a951637e0307cdcb4c672f298b8bc660608201524660808201523060a082015260c00160408051601f1981840301815291905280516020909101206006556007805473ffffffffffffffffffffffffffffffffffffffff1916321790558315610d9557845468ff000000000000000019168555604051600181527fc7f505b2f371ae2175ee4913f4499e1f2633a7b5936321eed1cdaeb6115181d29060200160405180910390a15b50505050505050505050565b5f7f80bb2b638cc20bc4d0a60d66940f3ab4a00c1d7b313497ca82fb0b4ab00793006001600160a01b038316610dec576040516322718ad960e21b81525f600482015260240161074b565b6001600160a01b039092165f908152600390920160205250604090205490565b6040518060800160405280605781526020016124526057913981565b7f80bb2b638cc20bc4d0a60d66940f3ab4a00c1d7b313497ca82fb0b4ab007930180546060917f80bb2b638cc20bc4d0a60d66940f3ab4a00c1d7b313497ca82fb0b4ab0079300916105e9906120c2565b6106bc33838361124c565b610e8f8484846106c0565b610e9b8484848461130e565b50505050565b610ea9611bb5565b836001600160a01b0316610ebc876108f3565b6001600160a01b031614610ed257610ed26122f4565b610edf8686858786610764565b1515600114610ef057610ef06122f4565b610ef8611bb5565b610f00611af0565b6002805460ff8916908110610f1757610f176120fa565b5f9182526020909120015467ffffffffffffffff1681526002805460ff8916908110610f4557610f456120fa565b5f9182526020918290200154600160401b900467ffffffffffffffff169082015281529695505050505050565b662386f26fc10000341015610fc95760405162461bcd60e51b815260206004820152601c60248201527f4648455f424c4f473a20696e73756666696369656e742066756e647300000000604482015260640161074b565b610fd4335f5461142d565b5f54610fe1906001612308565b5f9081556007546040516001600160a01b03909116913480156108fc02929091818181858888f1935050505015801561101c573d5f803e3d5ffd5b50565b60606040518060800160405280605781526020016124526057913992915050565b826001600160a01b0316611053866108f3565b6001600160a01b031614611069576110696122f4565b61108085858467ffffffffffffffff168685610764565b1515600114611091576110916122f4565b6001600160a01b0383165f90815260046020908152604080832067ffffffffffffffff8616845290915281205460ff1615159003611124576001600160a01b0383165f90815260046020908152604080832067ffffffffffffffff861684528252808320805460ff191660019081179091553384526005909252822080549192909161111e908490612308565b90915550505b5050505050565b5f8181527f80bb2b638cc20bc4d0a60d66940f3ab4a00c1d7b313497ca82fb0b4ab007930260205260408120546001600160a01b0316806105b157604051637e27328960e01b81526004810184905260240161074b565b61075f8383836001611446565b6001600160a01b0382166111b857604051633250574960e11b81525f600482015260240161074b565b5f6111c48383336115b6565b9050836001600160a01b0316816001600160a01b031614610e9b576040516364283d7b60e01b81526001600160a01b038086166004830152602482018490528216604482015260640161074b565b5f805f8061122086866116fd565b9250925092506112308282611746565b5090949350505050565b6112426117fe565b6106bc8282611849565b7f80bb2b638cc20bc4d0a60d66940f3ab4a00c1d7b313497ca82fb0b4ab00793006001600160a01b03831661129f57604051630b61174360e31b81526001600160a01b038416600482015260240161074b565b6001600160a01b038481165f818152600584016020908152604080832094881680845294825291829020805460ff191687151590811790915591519182527f17307eab39ab6107e8899845ad3d59bd9653f200f220920489ca2b5937696c31910160405180910390a350505050565b6001600160a01b0383163b15610e9b57604051630a85bd0160e11b81526001600160a01b0384169063150b7a0290611350903390889087908790600401612327565b6020604051808303815f875af192505050801561138a575060408051601f3d908101601f1916820190925261138791810190612362565b60015b6113f1573d8080156113b7576040519150601f19603f3d011682016040523d82523d5f602084013e6113bc565b606091505b5080515f036113e957604051633250574960e11b81526001600160a01b038516600482015260240161074b565b805181602001fd5b6001600160e01b03198116630a85bd0160e11b1461112457604051633250574960e11b81526001600160a01b038516600482015260240161074b565b6106bc828260405180602001604052805f81525061188c565b7f80bb2b638cc20bc4d0a60d66940f3ab4a00c1d7b313497ca82fb0b4ab0079300818061147b57506001600160a01b03831615155b15611579575f61148a8561112b565b90506001600160a01b038416158015906114b65750836001600160a01b0316816001600160a01b031614155b801561150657506001600160a01b038082165f9081527f80bb2b638cc20bc4d0a60d66940f3ab4a00c1d7b313497ca82fb0b4ab0079305602090815260408083209388168352929052205460ff16155b1561152f5760405163a9fbf51f60e01b81526001600160a01b038516600482015260240161074b565b82156115775784866001600160a01b0316826001600160a01b03167f8c5be1e5ebec7d5bd14f71427d1e84f3dd0314c0f7b2291e5b200ac8c7c3b92560405160405180910390a45b505b5f938452600401602052505060409020805473ffffffffffffffffffffffffffffffffffffffff19166001600160a01b0392909216919091179055565b5f8281527f80bb2b638cc20bc4d0a60d66940f3ab4a00c1d7b313497ca82fb0b4ab007930260205260408120547f80bb2b638cc20bc4d0a60d66940f3ab4a00c1d7b313497ca82fb0b4ab0079300906001600160a01b0390811690841615611623576116238185876118a2565b6001600160a01b0381161561165f5761163e5f865f80611446565b6001600160a01b0381165f908152600383016020526040902080545f190190555b6001600160a01b0386161561168f576001600160a01b0386165f9081526003830160205260409020805460010190555b5f858152600283016020526040808220805473ffffffffffffffffffffffffffffffffffffffff19166001600160a01b038a811691821790925591518893918516917fddf252ad1be2c89b69c2b068fc378daa952ba7f163c4a11628f55a4df523b3ef91a495945050505050565b5f805f8351604103611734576020840151604085015160608601515f1a61172688828585611906565b95509550955050505061173f565b505081515f91506002905b9250925092565b5f8260038111156117595761175961237d565b03611762575050565b60018260038111156117765761177661237d565b036117945760405163f645eedf60e01b815260040160405180910390fd5b60028260038111156117a8576117a861237d565b036117c95760405163fce698f760e01b81526004810182905260240161074b565b60038260038111156117dd576117dd61237d565b036106bc576040516335e2f38360e21b81526004810182905260240161074b565b7ff0c57e16840df040f15088dc2f81fe391c3923bec73e23a9662efc9c229c6a0054600160401b900460ff1661184757604051631afcd79f60e31b815260040160405180910390fd5b565b6118516117fe565b7f80bb2b638cc20bc4d0a60d66940f3ab4a00c1d7b313497ca82fb0b4ab00793008061187d8482612391565b5060018101610e9b8382612391565b61189683836119ce565b61075f5f84848461130e565b6118ad838383611a2f565b61075f576001600160a01b0383166118db57604051637e27328960e01b81526004810182905260240161074b565b60405163177e802f60e01b81526001600160a01b03831660048201526024810182905260440161074b565b5f80807f7fffffffffffffffffffffffffffffff5d576e7357a4501ddfe92f46681b20a084111561193f57505f915060039050826119c4565b604080515f808252602082018084528a905260ff891692820192909252606081018790526080810186905260019060a0016020604051602081039080840390855afa158015611990573d5f803e3d5ffd5b5050604051601f1901519150506001600160a01b0381166119bb57505f9250600191508290506119c4565b92505f91508190505b9450945094915050565b6001600160a01b0382166119f757604051633250574960e11b81525f600482015260240161074b565b5f611a0383835f6115b6565b90506001600160a01b0381161561075f576040516339e3563760e11b81525f600482015260240161074b565b5f6001600160a01b03831615801590611ae85750826001600160a01b0316846001600160a01b03161480611aa657506001600160a01b038085165f9081527f80bb2b638cc20bc4d0a60d66940f3ab4a00c1d7b313497ca82fb0b4ab0079305602090815260408083209387168352929052205460ff165b80611ae857505f8281527f80bb2b638cc20bc4d0a60d66940f3ab4a00c1d7b313497ca82fb0b4ab007930460205260409020546001600160a01b038481169116145b949350505050565b60405180604001604052806002906020820280368337509192915050565b600183019183908215611ba5579160200282015f5b83821115611b6f57835183826101000a81548167ffffffffffffffff021916908367ffffffffffffffff1602179055509260200192600801602081600701049283019260010302611b23565b8015611ba35782816101000a81549067ffffffffffffffff0219169055600801602081600701049283019260010302611b6f565b505b50611bb1929150611bcd565b5090565b6040518060200160405280611bc8611af0565b905290565b5b80821115611bb1575f8155600101611bce565b6001600160e01b03198116811461101c575f80fd5b5f60208284031215611c06575f80fd5b8135611c1181611be1565b9392505050565b5f81518084525f5b81811015611c3c57602081850181015186830182015201611c20565b505f602082860101526020601f19601f83011685010191505092915050565b602081525f611c116020830184611c18565b5f60208284031215611c7d575f80fd5b5035919050565b80356001600160a01b0381168114611c9a575f80fd5b919050565b5f8060408385031215611cb0575f80fd5b611cb983611c84565b946020939093013593505050565b5f805f60608486031215611cd9575f80fd5b611ce284611c84565b9250611cf060208501611c84565b9150604084013590509250925092565b803560ff81168114611c9a575f80fd5b634e487b7160e01b5f52604160045260245ffd5b5f82601f830112611d33575f80fd5b813567ffffffffffffffff80821115611d4e57611d4e611d10565b604051601f8301601f19908116603f01168101908282118183101715611d7657611d76611d10565b81604052838152866020858801011115611d8e575f80fd5b836020870160208301375f602085830101528094505050505092915050565b5f805f805f60a08688031215611dc1575f80fd5b85359450611dd160208701611d00565b935060408601359250611de660608701611c84565b9150608086013567ffffffffffffffff811115611e01575f80fd5b611e0d88828901611d24565b9150509295509295909350565b5f60208284031215611e2a575f80fd5b611c1182611c84565b5f8083601f840112611e43575f80fd5b50813567ffffffffffffffff811115611e5a575f80fd5b602083019150836020828501011115611e71575f80fd5b9250929050565b5f805f805f60608688031215611e8c575f80fd5b853567ffffffffffffffff80821115611ea3575f80fd5b908701906060828a031215611eb6575f80fd5b90955060208701359080821115611ecb575f80fd5b611ed789838a01611e33565b90965094506040880135915080821115611eef575f80fd5b50611efc88828901611e33565b969995985093965092949392505050565b5f8060408385031215611f1e575f80fd5b611f2783611c84565b915060208301358015158114611f3b575f80fd5b809150509250929050565b5f805f8060808587031215611f59575f80fd5b611f6285611c84565b9350611f7060208601611c84565b925060408501359150606085013567ffffffffffffffff811115611f92575f80fd5b611f9e87828801611d24565b91505092959194509250565b5f805f805f60a08688031215611fbe575f80fd5b85359450611fce60208701611d00565b9350611fdc60408701611c84565b925060608601359150608086013567ffffffffffffffff811115611e01575f80fd5b81516040820190825f5b600281101561203157825167ffffffffffffffff16825260209283019290910190600101612008565b50505092915050565b803567ffffffffffffffff81168114611c9a575f80fd5b5f805f805f60a08688031215612065575f80fd5b8535945061207560208701611d00565b935061208360408701611c84565b9250611de66060870161203a565b5f80604083850312156120a2575f80fd5b6120ab83611c84565b91506120b960208401611c84565b90509250929050565b600181811c908216806120d657607f821691505b6020821081036120f457634e487b7160e01b5f52602260045260245ffd5b50919050565b634e487b7160e01b5f52603260045260245ffd5b5f808335601e19843603018112612123575f80fd5b83018035915067ffffffffffffffff82111561213d575f80fd5b6020019150600581901b3603821315611e71575f80fd5b5f808335601e19843603018112612169575f80fd5b83018035915067ffffffffffffffff821115612183575f80fd5b602001915036819003821315611e71575f80fd5b601f82111561075f57805f5260205f20601f840160051c810160208510156121bc5750805b601f840160051c820191505b81811015611124575f81556001016121c8565b67ffffffffffffffff8311156121f3576121f3611d10565b6122078361220183546120c2565b83612197565b5f601f841160018114612238575f85156122215750838201355b5f19600387901b1c1916600186901b178355611124565b5f83815260208120601f198716915b828110156122675786850135825560209485019460019092019101612247565b5086821015612283575f1960f88860031b161c19848701351681555b505060018560011b0183555050505050565b5f808335601e198436030181126122aa575f80fd5b83018035915067ffffffffffffffff8211156122c4575f80fd5b6020019150600681901b3603821315611e71575f80fd5b5f602082840312156122eb575f80fd5b611c118261203a565b634e487b7160e01b5f52600160045260245ffd5b808201808211156105b157634e487b7160e01b5f52601160045260245ffd5b5f6001600160a01b038087168352808616602084015250836040830152608060608301526123586080830184611c18565b9695505050505050565b5f60208284031215612372575f80fd5b8151611c1181611be1565b634e487b7160e01b5f52602160045260245ffd5b815167ffffffffffffffff8111156123ab576123ab611d10565b6123bf816123b984546120c2565b84612197565b602080601f8311600181146123f2575f84156123db5750858301515b5f19600386901b1c1916600185901b178555612449565b5f85815260208120601f198616915b8281101561242057888601518255948401946001909101908401612401565b508582101561243d57878501515f19600388901b60f8161c191681555b505060018460011b0185555b50505050505056fe697066733a2f2f62616679626569673337696f6972373673376d67356f6f6265746e636f6a636d3363336878617379643472766964346a71687934676b61686567342f3f66696c656e616d653d302d5055472e6a736f6ea164736f6c6343000816000a",
  "linkReferences": {},
  "deployedLinkReferences": {}
}