{
  "_format": "hh-sol-artifact-1",
  "contractName": "FHE_BLOG",
  "sourceName": "contracts/FheBlog.sol",
  "abi": [
    {
      "inputs": [],
      "stateMutability": "nonpayable",
      "type": "constructor"
    },
    {
      "inputs": [],
      "name": "ECDSAInvalidSignature",
      "type": "error"
    },
    {
      "inputs": [
        {
          "internalType": "uint256",
          "name": "length",
          "type": "uint256"
        }
      ],
      "name": "ECDSAInvalidSignatureLength",
      "type": "error"
    },
    {
      "inputs": [
        {
          "internalType": "bytes32",
          "name": "s",
          "type": "bytes32"
        }
      ],
      "name": "ECDSAInvalidSignatureS",
      "type": "error"
    },
    {
      "inputs": [
        {
          "internalType": "address",
          "name": "sender",
          "type": "address"
        },
        {
          "internalType": "uint256",
          "name": "tokenId",
          "type": "uint256"
        },
        {
          "internalType": "address",
          "name": "owner",
          "type": "address"
        }
      ],
      "name": "ERC721IncorrectOwner",
      "type": "error"
    },
    {
      "inputs": [
        {
          "internalType": "address",
          "name": "operator",
          "type": "address"
        },
        {
          "internalType": "uint256",
          "name": "tokenId",
          "type": "uint256"
        }
      ],
      "name": "ERC721InsufficientApproval",
      "type": "error"
    },
    {
      "inputs": [
        {
          "internalType": "address",
          "name": "approver",
          "type": "address"
        }
      ],
      "name": "ERC721InvalidApprover",
      "type": "error"
    },
    {
      "inputs": [
        {
          "internalType": "address",
          "name": "operator",
          "type": "address"
        }
      ],
      "name": "ERC721InvalidOperator",
      "type": "error"
    },
    {
      "inputs": [
        {
          "internalType": "address",
          "name": "owner",
          "type": "address"
        }
      ],
      "name": "ERC721InvalidOwner",
      "type": "error"
    },
    {
      "inputs": [
        {
          "internalType": "address",
          "name": "receiver",
          "type": "address"
        }
      ],
      "name": "ERC721InvalidReceiver",
      "type": "error"
    },
    {
      "inputs": [
        {
          "internalType": "address",
          "name": "sender",
          "type": "address"
        }
      ],
      "name": "ERC721InvalidSender",
      "type": "error"
    },
    {
      "inputs": [
        {
          "internalType": "uint256",
          "name": "tokenId",
          "type": "uint256"
        }
      ],
      "name": "ERC721NonexistentToken",
      "type": "error"
    },
    {
      "inputs": [],
      "name": "InvalidInitialization",
      "type": "error"
    },
    {
      "inputs": [],
      "name": "NotInitializing",
      "type": "error"
    },
    {
      "anonymous": false,
      "inputs": [
        {
          "indexed": true,
          "internalType": "address",
          "name": "owner",
          "type": "address"
        },
        {
          "indexed": true,
          "internalType": "address",
          "name": "approved",
          "type": "address"
        },
        {
          "indexed": true,
          "internalType": "uint256",
          "name": "tokenId",
          "type": "uint256"
        }
      ],
      "name": "Approval",
      "type": "event"
    },
    {
      "anonymous": false,
      "inputs": [
        {
          "indexed": true,
          "internalType": "address",
          "name": "owner",
          "type": "address"
        },
        {
          "indexed": true,
          "internalType": "address",
          "name": "operator",
          "type": "address"
        },
        {
          "indexed": false,
          "internalType": "bool",
          "name": "approved",
          "type": "bool"
        }
      ],
      "name": "ApprovalForAll",
      "type": "event"
    },
    {
      "anonymous": false,
      "inputs": [
        {
          "indexed": false,
          "internalType": "uint64",
          "name": "version",
          "type": "uint64"
        }
      ],
      "name": "Initialized",
      "type": "event"
    },
    {
      "anonymous": false,
      "inputs": [
        {
          "indexed": true,
          "internalType": "address",
          "name": "from",
          "type": "address"
        },
        {
          "indexed": true,
          "internalType": "address",
          "name": "to",
          "type": "address"
        },
        {
          "indexed": true,
          "internalType": "uint256",
          "name": "tokenId",
          "type": "uint256"
        }
      ],
      "name": "Transfer",
      "type": "event"
    },
    {
      "inputs": [],
      "name": "TOKEN_URI",
      "outputs": [
        {
          "internalType": "string",
          "name": "",
          "type": "string"
        }
      ],
      "stateMutability": "view",
      "type": "function"
    },
    {
      "inputs": [
        {
          "internalType": "address",
          "name": "to",
          "type": "address"
        },
        {
          "internalType": "uint256",
          "name": "tokenId",
          "type": "uint256"
        }
      ],
      "name": "approve",
      "outputs": [],
      "stateMutability": "nonpayable",
      "type": "function"
    },
    {
      "inputs": [
        {
          "internalType": "address",
          "name": "owner",
          "type": "address"
        }
      ],
      "name": "balanceOf",
      "outputs": [
        {
          "internalType": "uint256",
          "name": "",
          "type": "uint256"
        }
      ],
      "stateMutability": "view",
      "type": "function"
    },
    {
      "inputs": [
        {
          "internalType": "uint8",
          "name": "relayer_id",
          "type": "uint8"
        },
        {
          "internalType": "address",
          "name": "caller",
          "type": "address"
        },
        {
          "internalType": "uint64",
          "name": "_nonce",
          "type": "uint64"
        },
        {
          "internalType": "bytes",
          "name": "signature",
          "type": "bytes"
        }
      ],
      "name": "claimReward",
      "outputs": [],
      "stateMutability": "nonpayable",
      "type": "function"
    },
    {
      "inputs": [
        {
          "internalType": "uint256",
          "name": "nft",
          "type": "uint256"
        },
        {
          "internalType": "uint8",
          "name": "relayer_id",
          "type": "uint8"
        },
        {
          "internalType": "address",
          "name": "caller",
          "type": "address"
        },
        {
          "internalType": "uint256",
          "name": "_nonce",
          "type": "uint256"
        },
        {
          "internalType": "bytes",
          "name": "signature",
          "type": "bytes"
        }
      ],
      "name": "generateJwt",
      "outputs": [
        {
          "components": [
            {
              "internalType": "bytes[2]",
              "name": "p",
              "type": "bytes[2]"
            }
          ],
          "internalType": "struct DecryptedBlog",
          "name": "",
          "type": "tuple"
        }
      ],
      "stateMutability": "view",
      "type": "function"
    },
    {
      "inputs": [
        {
          "internalType": "uint256",
          "name": "tokenId",
          "type": "uint256"
        }
      ],
      "name": "getApproved",
      "outputs": [
        {
          "internalType": "address",
          "name": "",
          "type": "address"
        }
      ],
      "stateMutability": "view",
      "type": "function"
    },
    {
      "inputs": [
        {
          "internalType": "uint256",
          "name": "relayer_id",
          "type": "uint256"
        }
      ],
      "name": "getCid",
      "outputs": [
        {
          "internalType": "bytes",
          "name": "",
          "type": "bytes"
        }
      ],
      "stateMutability": "view",
      "type": "function"
    },
    {
      "inputs": [],
      "name": "getTokenCounter",
      "outputs": [
        {
          "internalType": "uint256",
          "name": "",
          "type": "uint256"
        }
      ],
      "stateMutability": "view",
      "type": "function"
    },
    {
      "inputs": [],
      "name": "increaseNonce",
      "outputs": [],
      "stateMutability": "nonpayable",
      "type": "function"
    },
    {
      "inputs": [
        {
          "components": [
            {
              "internalType": "bytes[]",
              "name": "cid",
              "type": "bytes[]"
            },
            {
              "internalType": "bytes32[]",
              "name": "publicKey",
              "type": "bytes32[]"
            }
          ],
          "internalType": "struct BlogStorage",
          "name": "_data",
          "type": "tuple"
        },
        {
          "internalType": "bytes[2][]",
          "name": "_p",
          "type": "bytes[2][]"
        },
        {
          "internalType": "string",
          "name": "_nft_name",
          "type": "string"
        },
        {
          "internalType": "string",
          "name": "_nft_short_name",
          "type": "string"
        }
      ],
      "name": "initialize",
      "outputs": [],
      "stateMutability": "nonpayable",
      "type": "function"
    },
    {
      "inputs": [
        {
          "internalType": "address",
          "name": "owner",
          "type": "address"
        },
        {
          "internalType": "address",
          "name": "operator",
          "type": "address"
        }
      ],
      "name": "isApprovedForAll",
      "outputs": [
        {
          "internalType": "bool",
          "name": "",
          "type": "bool"
        }
      ],
      "stateMutability": "view",
      "type": "function"
    },
    {
      "inputs": [
        {
          "internalType": "address",
          "name": "",
          "type": "address"
        }
      ],
      "name": "latest_nonce",
      "outputs": [
        {
          "internalType": "uint64",
          "name": "",
          "type": "uint64"
        }
      ],
      "stateMutability": "view",
      "type": "function"
    },
    {
      "inputs": [],
      "name": "mintNft",
      "outputs": [],
      "stateMutability": "nonpayable",
      "type": "function"
    },
    {
      "inputs": [],
      "name": "name",
      "outputs": [
        {
          "internalType": "string",
          "name": "",
          "type": "string"
        }
      ],
      "stateMutability": "view",
      "type": "function"
    },
    {
      "inputs": [
        {
          "internalType": "uint256",
          "name": "tokenId",
          "type": "uint256"
        }
      ],
      "name": "ownerOf",
      "outputs": [
        {
          "internalType": "address",
          "name": "",
          "type": "address"
        }
      ],
      "stateMutability": "view",
      "type": "function"
    },
    {
      "inputs": [
        {
          "internalType": "address",
          "name": "",
          "type": "address"
        }
      ],
      "name": "reward",
      "outputs": [
        {
          "internalType": "uint256",
          "name": "",
          "type": "uint256"
        }
      ],
      "stateMutability": "view",
      "type": "function"
    },
    {
      "inputs": [],
      "name": "s_tokenCounter",
      "outputs": [
        {
          "internalType": "uint256",
          "name": "",
          "type": "uint256"
        }
      ],
      "stateMutability": "view",
      "type": "function"
    },
    {
      "inputs": [
        {
          "internalType": "address",
          "name": "from",
          "type": "address"
        },
        {
          "internalType": "address",
          "name": "to",
          "type": "address"
        },
        {
          "internalType": "uint256",
          "name": "tokenId",
          "type": "uint256"
        }
      ],
      "name": "safeTransferFrom",
      "outputs": [],
      "stateMutability": "nonpayable",
      "type": "function"
    },
    {
      "inputs": [
        {
          "internalType": "address",
          "name": "from",
          "type": "address"
        },
        {
          "internalType": "address",
          "name": "to",
          "type": "address"
        },
        {
          "internalType": "uint256",
          "name": "tokenId",
          "type": "uint256"
        },
        {
          "internalType": "bytes",
          "name": "data",
          "type": "bytes"
        }
      ],
      "name": "safeTransferFrom",
      "outputs": [],
      "stateMutability": "nonpayable",
      "type": "function"
    },
    {
      "inputs": [
        {
          "internalType": "address",
          "name": "operator",
          "type": "address"
        },
        {
          "internalType": "bool",
          "name": "approved",
          "type": "bool"
        }
      ],
      "name": "setApprovalForAll",
      "outputs": [],
      "stateMutability": "nonpayable",
      "type": "function"
    },
    {
      "inputs": [
        {
          "internalType": "bytes4",
          "name": "interfaceId",
          "type": "bytes4"
        }
      ],
      "name": "supportsInterface",
      "outputs": [
        {
          "internalType": "bool",
          "name": "",
          "type": "bool"
        }
      ],
      "stateMutability": "view",
      "type": "function"
    },
    {
      "inputs": [],
      "name": "symbol",
      "outputs": [
        {
          "internalType": "string",
          "name": "",
          "type": "string"
        }
      ],
      "stateMutability": "view",
      "type": "function"
    },
    {
      "inputs": [
        {
          "internalType": "uint256",
          "name": "tokenId",
          "type": "uint256"
        }
      ],
      "name": "tokenURI",
      "outputs": [
        {
          "internalType": "string",
          "name": "",
          "type": "string"
        }
      ],
      "stateMutability": "view",
      "type": "function"
    },
    {
      "inputs": [
        {
          "internalType": "address",
          "name": "from",
          "type": "address"
        },
        {
          "internalType": "address",
          "name": "to",
          "type": "address"
        },
        {
          "internalType": "uint256",
          "name": "tokenId",
          "type": "uint256"
        }
      ],
      "name": "transferFrom",
      "outputs": [],
      "stateMutability": "nonpayable",
      "type": "function"
    },
    {
      "inputs": [
        {
          "internalType": "uint8",
          "name": "relayer_id",
          "type": "uint8"
        },
        {
          "internalType": "uint256",
          "name": "nonce",
          "type": "uint256"
        },
        {
          "internalType": "address",
          "name": "signer",
          "type": "address"
        },
        {
          "internalType": "bytes",
          "name": "signature",
          "type": "bytes"
        }
      ],
      "name": "verifySignature",
      "outputs": [
        {
          "internalType": "bool",
          "name": "",
          "type": "bool"
        }
      ],
      "stateMutability": "pure",
      "type": "function"
    }
  ],
  "bytecode": "0x608060405234801561000f575f80fd5b5061001861001d565b6100cf565b7ff0c57e16840df040f15088dc2f81fe391c3923bec73e23a9662efc9c229c6a00805468010000000000000000900460ff161561006d5760405163f92ee8a960e01b815260040160405180910390fd5b80546001600160401b03908116146100cc5780546001600160401b0319166001600160401b0390811782556040519081527fc7f505b2f371ae2175ee4913f4499e1f2633a7b5936321eed1cdaeb6115181d29060200160405180910390a15b50565b61221c80620000dd5f395ff3fe608060405234801561000f575f80fd5b506004361061019a575f3560e01c806370a08231116100e8578063ba071e1b11610093578063c53a02921161006e578063c53a02921461037c578063c87b56dd14610384578063ddfdf1e914610397578063e985e9c5146103aa575f80fd5b8063ba071e1b14610341578063bfd8c20a14610361578063c2229fea14610374575f80fd5b8063a22cb465116100c3578063a22cb465146102d9578063b5ed986c146102ec578063b88d4fde1461032e575f80fd5b806370a08231146102b657806378ce9035146102c957806395d89b41146102d1575f80fd5b80633beaa6ab116101485780636352211e116101235780636352211e1461027d5780636353586b146102905780636e02007d146102af575f80fd5b80633beaa6ab146102445780633d68eb1d1461025757806342842e0e1461026a575f80fd5b8063095ea7b311610178578063095ea7b3146102065780630b21a83b1461021b57806323b872dd14610231575f80fd5b806301ffc9a71461019e57806306fdde03146101c6578063081812fc146101db575b5f80fd5b6101b16101ac3660046118d1565b610404565b60405190151581526020015b60405180910390f35b6101ce610455565b6040516101bd919061192f565b6101ee6101e9366004611941565b610509565b6040516001600160a01b0390911681526020016101bd565b610219610214366004611973565b61054f565b005b6102235f5481565b6040519081526020016101bd565b61021961023f36600461199b565b61055e565b6101ce610252366004611941565b6105ec565b610219610265366004611a19565b610699565b61021961027836600461199b565b610a26565b6101ee61028b366004611941565b610a45565b61022361029e366004611b04565b60056020525f908152604090205481565b5f54610223565b6102236102c4366004611b04565b610a4f565b6101ce610aba565b6101ce610ad6565b6102196102e7366004611b1d565b610b27565b6103156102fa366004611b04565b60066020525f908152604090205467ffffffffffffffff1681565b60405167ffffffffffffffff90911681526020016101bd565b61021961033c366004611bf3565b610b32565b61035461034f366004611c67565b610b49565b6040516101bd9190611cd4565b6101b161036f366004611d2a565b610c44565b610219610cd5565b610219610cf1565b6101ce610392366004611941565b610d42565b6102196103a5366004611d76565b610d63565b6101b16103b8366004611ddf565b6001600160a01b039182165f9081527f80bb2b638cc20bc4d0a60d66940f3ab4a00c1d7b313497ca82fb0b4ab00793056020908152604080832093909416825291909152205460ff1690565b5f6001600160e01b031982166380ac58cd60e01b148061043457506001600160e01b03198216635b5e139f60e01b145b8061044f57506301ffc9a760e01b6001600160e01b03198316145b92915050565b7f80bb2b638cc20bc4d0a60d66940f3ab4a00c1d7b313497ca82fb0b4ab0079300805460609190819061048790611e10565b80601f01602080910402602001604051908101604052809291908181526020018280546104b390611e10565b80156104fe5780601f106104d5576101008083540402835291602001916104fe565b820191905f5260205f20905b8154815290600101906020018083116104e157829003601f168201915b505050505091505090565b5f61051382610e22565b505f8281527f80bb2b638cc20bc4d0a60d66940f3ab4a00c1d7b313497ca82fb0b4ab007930460205260409020546001600160a01b031661044f565b61055a828233610e79565b5050565b6001600160a01b03821661058c57604051633250574960e11b81525f60048201526024015b60405180910390fd5b5f610598838333610e86565b9050836001600160a01b0316816001600160a01b0316146105e6576040516364283d7b60e01b81526001600160a01b0380861660048301526024820184905282166044820152606401610583565b50505050565b606060025f01828154811061060357610603611e48565b905f5260205f2001805461061690611e10565b80601f016020809104026020016040519081016040528092919081815260200182805461064290611e10565b801561068d5780601f106106645761010080835404028352916020019161068d565b820191905f5260205f20905b81548152906001019060200180831161067057829003601f168201915b50505050509050919050565b7ff0c57e16840df040f15088dc2f81fe391c3923bec73e23a9662efc9c229c6a00805468010000000000000000810460ff16159067ffffffffffffffff165f811580156106e35750825b90505f8267ffffffffffffffff1660011480156106ff5750303b155b90508115801561070d575080155b1561072b5760405163f92ee8a960e01b815260040160405180910390fd5b845467ffffffffffffffff19166001178555831561075f57845468ff00000000000000001916680100000000000000001785555b6107d089898080601f0160208091040260200160405190810160405280939291908181526020018383808284375f9201919091525050604080516020601f8d018190048102820181019092528b815292508b91508a90819084018382808284375f92019190915250610fcd92505050565b5f5b6107dc8d80611e5c565b90508110156109c95760026107f18e80611e5c565b8381811061080157610801611e48565b90506020028101906108139190611ea2565b82546001810184555f9384526020909320909201916108329183611f29565b5061083b61180a565b6001805480820182555f9190915261087c9060029081027fb10e2d527612073b26eecdfd717e6a320cf44b4afac2b0732d9fcbe2b7fa0cf601908390611828565b506108ef8d8d8481811061089257610892611e48565b90506020028101906108a49190611fe3565b5f5b6020028101906108b69190611ea2565b8080601f0160208091040260200160405190810160405280939291908181526020018383808284375f92019190915250610fdf92505050565b6001838154811061090257610902611e48565b5f9182526020822060029091020101556109408d8d8481811061092757610927611e48565b90506020028101906109399190611fe3565b60016108a6565b6001838154811061095357610953611e48565b905f5260205f20906002020160016002811061097157610971611e48565b018190555060026001018e806020019061098b9190611e5c565b8481811061099b5761099b611e48565b8354600180820186555f958652602095869020929095029390930135920191909155509190910190506107d2565b505f80558315610a1857845468ff000000000000000019168555604051600181527fc7f505b2f371ae2175ee4913f4499e1f2633a7b5936321eed1cdaeb6115181d29060200160405180910390a15b505050505050505050505050565b610a4083838360405180602001604052805f815250610b32565b505050565b5f61044f82610e22565b5f7f80bb2b638cc20bc4d0a60d66940f3ab4a00c1d7b313497ca82fb0b4ab00793006001600160a01b038316610a9a576040516322718ad960e21b81525f6004820152602401610583565b6001600160a01b039092165f908152600390920160205250604090205490565b6040518060800160405280605781526020016121b96057913981565b7f80bb2b638cc20bc4d0a60d66940f3ab4a00c1d7b313497ca82fb0b4ab007930180546060917f80bb2b638cc20bc4d0a60d66940f3ab4a00c1d7b313497ca82fb0b4ab00793009161048790611e10565b61055a338383610feb565b610b3d84848461055e565b6105e6848484846110ad565b610b51611866565b836001600160a01b0316610b6487610a45565b6001600160a01b031614610b7a57610b7a612001565b610b8685848685610c44565b1515600114610b9757610b97612001565b610b9f611866565b610ba761187e565b610bf760018860ff1681548110610bc057610bc0611e48565b5f91825260208220600290910201905b01546003805460ff8b16908110610be957610be9611e48565b905f5260205f2001546111d3565b815260018054610c33919060ff8a16908110610c1557610c15611e48565b905f5260205f209060020201600160028110610bd057610bd0611e48565b602082015281529695505050505050565b6040805160ff861660208201529081018490525f9081906060016040516020818303038152906040528051906020012090505f610cad827f19457468657265756d205369676e6564204d6573736167653a0a3332000000005f908152601c91909152603c902090565b90505f610cba82866111e6565b6001600160a01b038781169116149350505050949350505050565b610ce0335f5461120e565b5f54610ced906001612029565b5f55565b335f908152600660205260408120805460019290610d1a90849067ffffffffffffffff1661203c565b92506101000a81548167ffffffffffffffff021916908367ffffffffffffffff160217905550565b60606040518060800160405280605781526020016121b96057913992915050565b610d79848367ffffffffffffffff168584610c44565b1515600114610d8a57610d8a612001565b6001600160a01b0383165f90815260046020908152604080832067ffffffffffffffff8616845290915281205460ff16151590036105e6576001600160a01b0383165f90815260046020908152604080832067ffffffffffffffff861684528252808320805460ff1916600190811790915533845260059092528220805491929091610e17908490612029565b909155505050505050565b5f8181527f80bb2b638cc20bc4d0a60d66940f3ab4a00c1d7b313497ca82fb0b4ab007930260205260408120546001600160a01b03168061044f57604051637e27328960e01b815260048101849052602401610583565b610a408383836001611227565b5f8281527f80bb2b638cc20bc4d0a60d66940f3ab4a00c1d7b313497ca82fb0b4ab007930260205260408120547f80bb2b638cc20bc4d0a60d66940f3ab4a00c1d7b313497ca82fb0b4ab0079300906001600160a01b0390811690841615610ef357610ef3818587611397565b6001600160a01b03811615610f2f57610f0e5f865f80611227565b6001600160a01b0381165f908152600383016020526040902080545f190190555b6001600160a01b03861615610f5f576001600160a01b0386165f9081526003830160205260409020805460010190555b5f858152600283016020526040808220805473ffffffffffffffffffffffffffffffffffffffff19166001600160a01b038a811691821790925591518893918516917fddf252ad1be2c89b69c2b068fc378daa952ba7f163c4a11628f55a4df523b3ef91a495945050505050565b610fd56113fb565b61055a828261144b565b5f61044f82600361148e565b7f80bb2b638cc20bc4d0a60d66940f3ab4a00c1d7b313497ca82fb0b4ab00793006001600160a01b03831661103e57604051630b61174360e31b81526001600160a01b0384166004820152602401610583565b6001600160a01b038481165f818152600584016020908152604080832094881680845294825291829020805460ff191687151590811790915591519182527f17307eab39ab6107e8899845ad3d59bd9653f200f220920489ca2b5937696c31910160405180910390a350505050565b6001600160a01b0383163b156105e657604051630a85bd0160e11b81526001600160a01b0384169063150b7a02906110ef903390889087908790600401612064565b6020604051808303815f875af1925050508015611129575060408051601f3d908101601f191682019092526111269181019061209f565b60015b611190573d808015611156576040519150601f19603f3d011682016040523d82523d5f602084013e61115b565b606091505b5080515f0361118857604051633250574960e11b81526001600160a01b0385166004820152602401610583565b805181602001fd5b6001600160e01b03198116630a85bd0160e11b146111cc57604051633250574960e11b81526001600160a01b0385166004820152602401610583565b5050505050565b60606111df83836114dc565b9392505050565b5f805f806111f48686611509565b9250925092506112048282611552565b5090949350505050565b61055a828260405180602001604052805f81525061160a565b7f80bb2b638cc20bc4d0a60d66940f3ab4a00c1d7b313497ca82fb0b4ab0079300818061125c57506001600160a01b03831615155b1561135a575f61126b85610e22565b90506001600160a01b038416158015906112975750836001600160a01b0316816001600160a01b031614155b80156112e757506001600160a01b038082165f9081527f80bb2b638cc20bc4d0a60d66940f3ab4a00c1d7b313497ca82fb0b4ab0079305602090815260408083209388168352929052205460ff16155b156113105760405163a9fbf51f60e01b81526001600160a01b0385166004820152602401610583565b82156113585784866001600160a01b0316826001600160a01b03167f8c5be1e5ebec7d5bd14f71427d1e84f3dd0314c0f7b2291e5b200ac8c7c3b92560405160405180910390a45b505b5f938452600401602052505060409020805473ffffffffffffffffffffffffffffffffffffffff19166001600160a01b0392909216919091179055565b6113a2838383611620565b610a40576001600160a01b0383166113d057604051637e27328960e01b815260048101829052602401610583565b60405163177e802f60e01b81526001600160a01b038316600482015260248101829052604401610583565b7ff0c57e16840df040f15088dc2f81fe391c3923bec73e23a9662efc9c229c6a005468010000000000000000900460ff1661144957604051631afcd79f60e31b815260040160405180910390fd5b565b6114536113fb565b7f80bb2b638cc20bc4d0a60d66940f3ab4a00c1d7b313497ca82fb0b4ab00793008061147f84826120ba565b50600181016105e683826120ba565b5f80601f845111600181146114a957602085015191506114b1565b845185015191505b506020845110156111df5783516114c990602061217a565b6114d490600861218d565b1c9392505050565b60408051602080825281830190925260609160208201818036833701905050905082602082015292915050565b5f805f8351604103611540576020840151604085015160608601515f1a611532888285856116e1565b95509550955050505061154b565b505081515f91506002905b9250925092565b5f826003811115611565576115656121a4565b0361156e575050565b6001826003811115611582576115826121a4565b036115a05760405163f645eedf60e01b815260040160405180910390fd5b60028260038111156115b4576115b46121a4565b036115d55760405163fce698f760e01b815260048101829052602401610583565b60038260038111156115e9576115e96121a4565b0361055a576040516335e2f38360e21b815260048101829052602401610583565b61161483836117a9565b610a405f8484846110ad565b5f6001600160a01b038316158015906116d95750826001600160a01b0316846001600160a01b0316148061169757506001600160a01b038085165f9081527f80bb2b638cc20bc4d0a60d66940f3ab4a00c1d7b313497ca82fb0b4ab0079305602090815260408083209387168352929052205460ff165b806116d957505f8281527f80bb2b638cc20bc4d0a60d66940f3ab4a00c1d7b313497ca82fb0b4ab007930460205260409020546001600160a01b038481169116145b949350505050565b5f80807f7fffffffffffffffffffffffffffffff5d576e7357a4501ddfe92f46681b20a084111561171a57505f9150600390508261179f565b604080515f808252602082018084528a905260ff891692820192909252606081018790526080810186905260019060a0016020604051602081039080840390855afa15801561176b573d5f803e3d5ffd5b5050604051601f1901519150506001600160a01b03811661179657505f92506001915082905061179f565b92505f91508190505b9450945094915050565b6001600160a01b0382166117d257604051633250574960e11b81525f6004820152602401610583565b5f6117de83835f610e86565b90506001600160a01b03811615610a40576040516339e3563760e11b81525f6004820152602401610583565b60405180604001604052806002906020820280368337509192915050565b8260028101928215611856579160200282015b8281111561185657825182559160200191906001019061183b565b506118629291506118a5565b5090565b604051806020016040528061187961187e565b905290565b60405180604001604052806002905b606081526020019060019003908161188d5790505090565b5b80821115611862575f81556001016118a6565b6001600160e01b0319811681146118ce575f80fd5b50565b5f602082840312156118e1575f80fd5b81356111df816118b9565b5f81518084525f5b81811015611910576020818501810151868301820152016118f4565b505f602082860101526020601f19601f83011685010191505092915050565b602081525f6111df60208301846118ec565b5f60208284031215611951575f80fd5b5035919050565b80356001600160a01b038116811461196e575f80fd5b919050565b5f8060408385031215611984575f80fd5b61198d83611958565b946020939093013593505050565b5f805f606084860312156119ad575f80fd5b6119b684611958565b92506119c460208501611958565b9150604084013590509250925092565b5f8083601f8401126119e4575f80fd5b50813567ffffffffffffffff8111156119fb575f80fd5b602083019150836020828501011115611a12575f80fd5b9250929050565b5f805f805f805f6080888a031215611a2f575f80fd5b873567ffffffffffffffff80821115611a46575f80fd5b908901906040828c031215611a59575f80fd5b90975060208901359080821115611a6e575f80fd5b818a0191508a601f830112611a81575f80fd5b813581811115611a8f575f80fd5b8b60208260051b8501011115611aa3575f80fd5b6020830198508097505060408a0135915080821115611ac0575f80fd5b611acc8b838c016119d4565b909650945060608a0135915080821115611ae4575f80fd5b50611af18a828b016119d4565b989b979a50959850939692959293505050565b5f60208284031215611b14575f80fd5b6111df82611958565b5f8060408385031215611b2e575f80fd5b611b3783611958565b915060208301358015158114611b4b575f80fd5b809150509250929050565b634e487b7160e01b5f52604160045260245ffd5b5f82601f830112611b79575f80fd5b813567ffffffffffffffff80821115611b9457611b94611b56565b604051601f8301601f19908116603f01168101908282118183101715611bbc57611bbc611b56565b81604052838152866020858801011115611bd4575f80fd5b836020870160208301375f602085830101528094505050505092915050565b5f805f8060808587031215611c06575f80fd5b611c0f85611958565b9350611c1d60208601611958565b925060408501359150606085013567ffffffffffffffff811115611c3f575f80fd5b611c4b87828801611b6a565b91505092959194509250565b803560ff8116811461196e575f80fd5b5f805f805f60a08688031215611c7b575f80fd5b85359450611c8b60208701611c57565b9350611c9960408701611958565b925060608601359150608086013567ffffffffffffffff811115611cbb575f80fd5b611cc788828901611b6a565b9150509295509295909350565b602080825282518282018290525f9190608084019060408501845b6002811015611d1e57603f19878503018252611d0c8484516118ec565b93509184019190840190600101611cef565b50919695505050505050565b5f805f8060808587031215611d3d575f80fd5b611d4685611c57565b935060208501359250611d5b60408601611958565b9150606085013567ffffffffffffffff811115611c3f575f80fd5b5f805f8060808587031215611d89575f80fd5b611d9285611c57565b9350611da060208601611958565b9250604085013567ffffffffffffffff8082168214611dbd575f80fd5b90925060608601359080821115611dd2575f80fd5b50611c4b87828801611b6a565b5f8060408385031215611df0575f80fd5b611df983611958565b9150611e0760208401611958565b90509250929050565b600181811c90821680611e2457607f821691505b602082108103611e4257634e487b7160e01b5f52602260045260245ffd5b50919050565b634e487b7160e01b5f52603260045260245ffd5b5f808335601e19843603018112611e71575f80fd5b83018035915067ffffffffffffffff821115611e8b575f80fd5b6020019150600581901b3603821315611a12575f80fd5b5f808335601e19843603018112611eb7575f80fd5b83018035915067ffffffffffffffff821115611ed1575f80fd5b602001915036819003821315611a12575f80fd5b601f821115610a4057805f5260205f20601f840160051c81016020851015611f0a5750805b601f840160051c820191505b818110156111cc575f8155600101611f16565b67ffffffffffffffff831115611f4157611f41611b56565b611f5583611f4f8354611e10565b83611ee5565b5f601f841160018114611f86575f8515611f6f5750838201355b5f19600387901b1c1916600186901b1783556111cc565b5f83815260208120601f198716915b82811015611fb55786850135825560209485019460019092019101611f95565b5086821015611fd1575f1960f88860031b161c19848701351681555b505060018560011b0183555050505050565b5f8235603e19833603018112611ff7575f80fd5b9190910192915050565b634e487b7160e01b5f52600160045260245ffd5b634e487b7160e01b5f52601160045260245ffd5b8082018082111561044f5761044f612015565b67ffffffffffffffff81811683821601908082111561205d5761205d612015565b5092915050565b5f6001600160a01b0380871683528086166020840152508360408301526080606083015261209560808301846118ec565b9695505050505050565b5f602082840312156120af575f80fd5b81516111df816118b9565b815167ffffffffffffffff8111156120d4576120d4611b56565b6120e8816120e28454611e10565b84611ee5565b602080601f83116001811461211b575f84156121045750858301515b5f19600386901b1c1916600185901b178555612172565b5f85815260208120601f198616915b828110156121495788860151825594840194600190910190840161212a565b508582101561216657878501515f19600388901b60f8161c191681555b505060018460011b0185555b505050505050565b8181038181111561044f5761044f612015565b808202811582820484141761044f5761044f612015565b634e487b7160e01b5f52602160045260245ffdfe697066733a2f2f62616679626569673337696f6972373673376d67356f6f6265746e636f6a636d3363336878617379643472766964346a71687934676b61686567342f3f66696c656e616d653d302d5055472e6a736f6ea164736f6c6343000816000a",
  "linkReferences": {},
  "deployedLinkReferences": {}
}