{
  "_format": "hh-sol-artifact-1",
  "contractName": "FHE_BLOGCrutch",
  "sourceName": "contracts/FheBlogCrutch.sol",
  "abi": [
    {
      "inputs": [],
      "stateMutability": "nonpayable",
      "type": "constructor"
    },
    {
      "inputs": [],
      "name": "ECDSAInvalidSignature",
      "type": "error"
    },
    {
      "inputs": [
        {
          "internalType": "uint256",
          "name": "length",
          "type": "uint256"
        }
      ],
      "name": "ECDSAInvalidSignatureLength",
      "type": "error"
    },
    {
      "inputs": [
        {
          "internalType": "bytes32",
          "name": "s",
          "type": "bytes32"
        }
      ],
      "name": "ECDSAInvalidSignatureS",
      "type": "error"
    },
    {
      "inputs": [
        {
          "internalType": "address",
          "name": "sender",
          "type": "address"
        },
        {
          "internalType": "uint256",
          "name": "tokenId",
          "type": "uint256"
        },
        {
          "internalType": "address",
          "name": "owner",
          "type": "address"
        }
      ],
      "name": "ERC721IncorrectOwner",
      "type": "error"
    },
    {
      "inputs": [
        {
          "internalType": "address",
          "name": "operator",
          "type": "address"
        },
        {
          "internalType": "uint256",
          "name": "tokenId",
          "type": "uint256"
        }
      ],
      "name": "ERC721InsufficientApproval",
      "type": "error"
    },
    {
      "inputs": [
        {
          "internalType": "address",
          "name": "approver",
          "type": "address"
        }
      ],
      "name": "ERC721InvalidApprover",
      "type": "error"
    },
    {
      "inputs": [
        {
          "internalType": "address",
          "name": "operator",
          "type": "address"
        }
      ],
      "name": "ERC721InvalidOperator",
      "type": "error"
    },
    {
      "inputs": [
        {
          "internalType": "address",
          "name": "owner",
          "type": "address"
        }
      ],
      "name": "ERC721InvalidOwner",
      "type": "error"
    },
    {
      "inputs": [
        {
          "internalType": "address",
          "name": "receiver",
          "type": "address"
        }
      ],
      "name": "ERC721InvalidReceiver",
      "type": "error"
    },
    {
      "inputs": [
        {
          "internalType": "address",
          "name": "sender",
          "type": "address"
        }
      ],
      "name": "ERC721InvalidSender",
      "type": "error"
    },
    {
      "inputs": [
        {
          "internalType": "uint256",
          "name": "tokenId",
          "type": "uint256"
        }
      ],
      "name": "ERC721NonexistentToken",
      "type": "error"
    },
    {
      "inputs": [],
      "name": "InvalidInitialization",
      "type": "error"
    },
    {
      "inputs": [],
      "name": "NotInitializing",
      "type": "error"
    },
    {
      "anonymous": false,
      "inputs": [
        {
          "indexed": true,
          "internalType": "address",
          "name": "owner",
          "type": "address"
        },
        {
          "indexed": true,
          "internalType": "address",
          "name": "approved",
          "type": "address"
        },
        {
          "indexed": true,
          "internalType": "uint256",
          "name": "tokenId",
          "type": "uint256"
        }
      ],
      "name": "Approval",
      "type": "event"
    },
    {
      "anonymous": false,
      "inputs": [
        {
          "indexed": true,
          "internalType": "address",
          "name": "owner",
          "type": "address"
        },
        {
          "indexed": true,
          "internalType": "address",
          "name": "operator",
          "type": "address"
        },
        {
          "indexed": false,
          "internalType": "bool",
          "name": "approved",
          "type": "bool"
        }
      ],
      "name": "ApprovalForAll",
      "type": "event"
    },
    {
      "anonymous": false,
      "inputs": [
        {
          "indexed": false,
          "internalType": "uint64",
          "name": "version",
          "type": "uint64"
        }
      ],
      "name": "Initialized",
      "type": "event"
    },
    {
      "anonymous": false,
      "inputs": [
        {
          "indexed": true,
          "internalType": "address",
          "name": "from",
          "type": "address"
        },
        {
          "indexed": true,
          "internalType": "address",
          "name": "to",
          "type": "address"
        },
        {
          "indexed": true,
          "internalType": "uint256",
          "name": "tokenId",
          "type": "uint256"
        }
      ],
      "name": "Transfer",
      "type": "event"
    },
    {
      "inputs": [],
      "name": "TOKEN_URI",
      "outputs": [
        {
          "internalType": "string",
          "name": "",
          "type": "string"
        }
      ],
      "stateMutability": "view",
      "type": "function"
    },
    {
      "inputs": [
        {
          "internalType": "address",
          "name": "to",
          "type": "address"
        },
        {
          "internalType": "uint256",
          "name": "tokenId",
          "type": "uint256"
        }
      ],
      "name": "approve",
      "outputs": [],
      "stateMutability": "nonpayable",
      "type": "function"
    },
    {
      "inputs": [
        {
          "internalType": "address",
          "name": "owner",
          "type": "address"
        }
      ],
      "name": "balanceOf",
      "outputs": [
        {
          "internalType": "uint256",
          "name": "",
          "type": "uint256"
        }
      ],
      "stateMutability": "view",
      "type": "function"
    },
    {
      "inputs": [
        {
          "internalType": "uint8",
          "name": "relayer_id",
          "type": "uint8"
        },
        {
          "internalType": "address",
          "name": "caller",
          "type": "address"
        },
        {
          "internalType": "uint64",
          "name": "_nonce",
          "type": "uint64"
        },
        {
          "internalType": "bytes",
          "name": "signature",
          "type": "bytes"
        }
      ],
      "name": "claimReward",
      "outputs": [],
      "stateMutability": "nonpayable",
      "type": "function"
    },
    {
      "inputs": [
        {
          "internalType": "uint256",
          "name": "nft",
          "type": "uint256"
        },
        {
          "internalType": "uint8",
          "name": "relayer_id",
          "type": "uint8"
        },
        {
          "internalType": "address",
          "name": "caller",
          "type": "address"
        },
        {
          "internalType": "uint256",
          "name": "_nonce",
          "type": "uint256"
        },
        {
          "internalType": "bytes",
          "name": "signature",
          "type": "bytes"
        }
      ],
      "name": "generateJwt",
      "outputs": [
        {
          "components": [
            {
              "internalType": "uint64[2]",
              "name": "p",
              "type": "uint64[2]"
            }
          ],
          "internalType": "struct DecryptedBlog",
          "name": "",
          "type": "tuple"
        }
      ],
      "stateMutability": "view",
      "type": "function"
    },
    {
      "inputs": [
        {
          "internalType": "uint256",
          "name": "tokenId",
          "type": "uint256"
        }
      ],
      "name": "getApproved",
      "outputs": [
        {
          "internalType": "address",
          "name": "",
          "type": "address"
        }
      ],
      "stateMutability": "view",
      "type": "function"
    },
    {
      "inputs": [
        {
          "internalType": "uint256",
          "name": "relayer_id",
          "type": "uint256"
        }
      ],
      "name": "getCid",
      "outputs": [
        {
          "internalType": "bytes",
          "name": "",
          "type": "bytes"
        }
      ],
      "stateMutability": "view",
      "type": "function"
    },
    {
      "inputs": [],
      "name": "getTokenCounter",
      "outputs": [
        {
          "internalType": "uint256",
          "name": "",
          "type": "uint256"
        }
      ],
      "stateMutability": "view",
      "type": "function"
    },
    {
      "inputs": [],
      "name": "increaseNonce",
      "outputs": [],
      "stateMutability": "nonpayable",
      "type": "function"
    },
    {
      "inputs": [
        {
          "components": [
            {
              "internalType": "bytes[]",
              "name": "cid",
              "type": "bytes[]"
            },
            {
              "internalType": "uint64[2][]",
              "name": "p",
              "type": "uint64[2][]"
            },
            {
              "internalType": "bytes32[]",
              "name": "publicKey",
              "type": "bytes32[]"
            }
          ],
          "internalType": "struct BlogStorage",
          "name": "_data",
          "type": "tuple"
        },
        {
          "internalType": "string",
          "name": "_nft_name",
          "type": "string"
        },
        {
          "internalType": "string",
          "name": "_nft_short_name",
          "type": "string"
        }
      ],
      "name": "initialize",
      "outputs": [],
      "stateMutability": "nonpayable",
      "type": "function"
    },
    {
      "inputs": [
        {
          "internalType": "address",
          "name": "owner",
          "type": "address"
        },
        {
          "internalType": "address",
          "name": "operator",
          "type": "address"
        }
      ],
      "name": "isApprovedForAll",
      "outputs": [
        {
          "internalType": "bool",
          "name": "",
          "type": "bool"
        }
      ],
      "stateMutability": "view",
      "type": "function"
    },
    {
      "inputs": [
        {
          "internalType": "address",
          "name": "",
          "type": "address"
        }
      ],
      "name": "latest_nonce",
      "outputs": [
        {
          "internalType": "uint64",
          "name": "",
          "type": "uint64"
        }
      ],
      "stateMutability": "view",
      "type": "function"
    },
    {
      "inputs": [],
      "name": "mintNft",
      "outputs": [],
      "stateMutability": "nonpayable",
      "type": "function"
    },
    {
      "inputs": [],
      "name": "name",
      "outputs": [
        {
          "internalType": "string",
          "name": "",
          "type": "string"
        }
      ],
      "stateMutability": "view",
      "type": "function"
    },
    {
      "inputs": [
        {
          "internalType": "uint256",
          "name": "tokenId",
          "type": "uint256"
        }
      ],
      "name": "ownerOf",
      "outputs": [
        {
          "internalType": "address",
          "name": "",
          "type": "address"
        }
      ],
      "stateMutability": "view",
      "type": "function"
    },
    {
      "inputs": [
        {
          "internalType": "address",
          "name": "",
          "type": "address"
        }
      ],
      "name": "reward",
      "outputs": [
        {
          "internalType": "uint256",
          "name": "",
          "type": "uint256"
        }
      ],
      "stateMutability": "view",
      "type": "function"
    },
    {
      "inputs": [],
      "name": "s_tokenCounter",
      "outputs": [
        {
          "internalType": "uint256",
          "name": "",
          "type": "uint256"
        }
      ],
      "stateMutability": "view",
      "type": "function"
    },
    {
      "inputs": [
        {
          "internalType": "address",
          "name": "from",
          "type": "address"
        },
        {
          "internalType": "address",
          "name": "to",
          "type": "address"
        },
        {
          "internalType": "uint256",
          "name": "tokenId",
          "type": "uint256"
        }
      ],
      "name": "safeTransferFrom",
      "outputs": [],
      "stateMutability": "nonpayable",
      "type": "function"
    },
    {
      "inputs": [
        {
          "internalType": "address",
          "name": "from",
          "type": "address"
        },
        {
          "internalType": "address",
          "name": "to",
          "type": "address"
        },
        {
          "internalType": "uint256",
          "name": "tokenId",
          "type": "uint256"
        },
        {
          "internalType": "bytes",
          "name": "data",
          "type": "bytes"
        }
      ],
      "name": "safeTransferFrom",
      "outputs": [],
      "stateMutability": "nonpayable",
      "type": "function"
    },
    {
      "inputs": [
        {
          "internalType": "address",
          "name": "operator",
          "type": "address"
        },
        {
          "internalType": "bool",
          "name": "approved",
          "type": "bool"
        }
      ],
      "name": "setApprovalForAll",
      "outputs": [],
      "stateMutability": "nonpayable",
      "type": "function"
    },
    {
      "inputs": [
        {
          "internalType": "bytes4",
          "name": "interfaceId",
          "type": "bytes4"
        }
      ],
      "name": "supportsInterface",
      "outputs": [
        {
          "internalType": "bool",
          "name": "",
          "type": "bool"
        }
      ],
      "stateMutability": "view",
      "type": "function"
    },
    {
      "inputs": [],
      "name": "symbol",
      "outputs": [
        {
          "internalType": "string",
          "name": "",
          "type": "string"
        }
      ],
      "stateMutability": "view",
      "type": "function"
    },
    {
      "inputs": [
        {
          "internalType": "uint256",
          "name": "tokenId",
          "type": "uint256"
        }
      ],
      "name": "tokenURI",
      "outputs": [
        {
          "internalType": "string",
          "name": "",
          "type": "string"
        }
      ],
      "stateMutability": "view",
      "type": "function"
    },
    {
      "inputs": [
        {
          "internalType": "address",
          "name": "from",
          "type": "address"
        },
        {
          "internalType": "address",
          "name": "to",
          "type": "address"
        },
        {
          "internalType": "uint256",
          "name": "tokenId",
          "type": "uint256"
        }
      ],
      "name": "transferFrom",
      "outputs": [],
      "stateMutability": "nonpayable",
      "type": "function"
    },
    {
      "inputs": [
        {
          "internalType": "uint8",
          "name": "relayer_id",
          "type": "uint8"
        },
        {
          "internalType": "uint256",
          "name": "nonce",
          "type": "uint256"
        },
        {
          "internalType": "address",
          "name": "signer",
          "type": "address"
        },
        {
          "internalType": "bytes",
          "name": "signature",
          "type": "bytes"
        }
      ],
      "name": "verifySignature",
      "outputs": [
        {
          "internalType": "bool",
          "name": "",
          "type": "bool"
        }
      ],
      "stateMutability": "pure",
      "type": "function"
    }
  ],
  "bytecode": "0x608060405234801561000f575f80fd5b5061001861001d565b6100cf565b7ff0c57e16840df040f15088dc2f81fe391c3923bec73e23a9662efc9c229c6a00805468010000000000000000900460ff161561006d5760405163f92ee8a960e01b815260040160405180910390fd5b80546001600160401b03908116146100cc5780546001600160401b0319166001600160401b0390811782556040519081527fc7f505b2f371ae2175ee4913f4499e1f2633a7b5936321eed1cdaeb6115181d29060200160405180910390a15b50565b61213680620000dd5f395ff3fe608060405234801561000f575f80fd5b506004361061019a575f3560e01c806370a08231116100e8578063ba071e1b11610093578063c53a02921161006e578063c53a02921461037c578063c87b56dd14610384578063ddfdf1e914610397578063e985e9c5146103aa575f80fd5b8063ba071e1b14610341578063bfd8c20a14610361578063c2229fea14610374575f80fd5b8063a22cb465116100c3578063a22cb465146102d9578063b5ed986c146102ec578063b88d4fde1461032e575f80fd5b806370a08231146102b657806378ce9035146102c957806395d89b41146102d1575f80fd5b80633beaa6ab116101485780636353586b116101235780636353586b1461027d57806365aec23f1461029c5780636e02007d146102af575f80fd5b80633beaa6ab1461024457806342842e0e146102575780636352211e1461026a575f80fd5b8063095ea7b311610178578063095ea7b3146102065780630b21a83b1461021b57806323b872dd14610231575f80fd5b806301ffc9a71461019e57806306fdde03146101c6578063081812fc146101db575b5f80fd5b6101b16101ac366004611857565b610404565b60405190151581526020015b60405180910390f35b6101ce610455565b6040516101bd91906118bc565b6101ee6101e93660046118ce565b610509565b6040516001600160a01b0390911681526020016101bd565b610219610214366004611900565b61054f565b005b6102235f5481565b6040519081526020016101bd565b61021961023f366004611928565b61055e565b6101ce6102523660046118ce565b6105ec565b610219610265366004611928565b610699565b6101ee6102783660046118ce565b6106b8565b61022361028b366004611961565b60056020525f908152604090205481565b6102196102aa3660046119bf565b6106c2565b5f54610223565b6102236102c4366004611961565b610a5d565b6101ce610ac8565b6101ce610ae4565b6102196102e7366004611a54565b610b35565b6103156102fa366004611961565b60066020525f908152604090205467ffffffffffffffff1681565b60405167ffffffffffffffff90911681526020016101bd565b61021961033c366004611b2a565b610b40565b61035461034f366004611b9e565b610b57565b6040516101bd9190611c0b565b6101b161036f366004611c47565b610c27565b610219610cb8565b610219610cd4565b6101ce6103923660046118ce565b610d25565b6102196103a5366004611caa565b610d46565b6101b16103b8366004611ce2565b6001600160a01b039182165f9081527f80bb2b638cc20bc4d0a60d66940f3ab4a00c1d7b313497ca82fb0b4ab00793056020908152604080832093909416825291909152205460ff1690565b5f6001600160e01b031982166380ac58cd60e01b148061043457506001600160e01b03198216635b5e139f60e01b145b8061044f57506301ffc9a760e01b6001600160e01b03198316145b92915050565b7f80bb2b638cc20bc4d0a60d66940f3ab4a00c1d7b313497ca82fb0b4ab0079300805460609190819061048790611d13565b80601f01602080910402602001604051908101604052809291908181526020018280546104b390611d13565b80156104fe5780601f106104d5576101008083540402835291602001916104fe565b820191905f5260205f20905b8154815290600101906020018083116104e157829003601f168201915b505050505091505090565b5f61051382610e05565b505f8281527f80bb2b638cc20bc4d0a60d66940f3ab4a00c1d7b313497ca82fb0b4ab007930460205260409020546001600160a01b031661044f565b61055a828233610e5c565b5050565b6001600160a01b03821661058c57604051633250574960e11b81525f60048201526024015b60405180910390fd5b5f610598838333610e69565b9050836001600160a01b0316816001600160a01b0316146105e6576040516364283d7b60e01b81526001600160a01b0380861660048301526024820184905282166044820152606401610583565b50505050565b606060015f01828154811061060357610603611d4b565b905f5260205f2001805461061690611d13565b80601f016020809104026020016040519081016040528092919081815260200182805461064290611d13565b801561068d5780601f106106645761010080835404028352916020019161068d565b820191905f5260205f20905b81548152906001019060200180831161067057829003601f168201915b50505050509050919050565b6106b383838360405180602001604052805f815250610b40565b505050565b5f61044f82610e05565b7ff0c57e16840df040f15088dc2f81fe391c3923bec73e23a9662efc9c229c6a008054600160401b810460ff16159067ffffffffffffffff165f811580156107075750825b90505f8267ffffffffffffffff1660011480156107235750303b155b905081158015610731575080155b1561074f5760405163f92ee8a960e01b815260040160405180910390fd5b845467ffffffffffffffff19166001178555831561077e57845468ff00000000000000001916600160401b1785555b6107ef89898080601f0160208091040260200160405190810160405280939291908181526020018383808284375f9201919091525050604080516020601f8d018190048102820181019092528b815292508b91508a90819084018382808284375f92019190915250610fb092505050565b5f5b6107fb8b80611d5f565b9050811015610a025760016108108c80611d5f565b8381811061082057610820611d4b565b90506020028101906108329190611da5565b82546001810184555f9384526020909320909201916108519183611e2c565b5061085a61174e565b600280546001810182555f829052610898917f405787fa12a823e0f2b7631cc41b3ba8828b3321ca811111fa75cd3aa3bb5ace90910190839061176c565b506108a660208d018d611ee6565b838181106108b6576108b6611d4b565b9050604002015f600281106108cd576108cd611d4b565b6020020160208101906108e09190611f2c565b60028054849081106108f4576108f4611d4b565b5f91825260209182902001805467ffffffffffffffff191667ffffffffffffffff939093169290921790915561092c908d018d611ee6565b8381811061093c5761093c611d4b565b90506040020160016002811061095457610954611d4b565b6020020160208101906109679190611f2c565b600280548490811061097b5761097b611d4b565b5f918252602090912001805467ffffffffffffffff92909216600160401b026fffffffffffffffff00000000000000001990921691909117905560036109c460408e018e611d5f565b848181106109d4576109d4611d4b565b8354600180820186555f958652602095869020929095029390930135920191909155509190910190506107f1565b505f80558315610a5157845468ff000000000000000019168555604051600181527fc7f505b2f371ae2175ee4913f4499e1f2633a7b5936321eed1cdaeb6115181d29060200160405180910390a15b50505050505050505050565b5f7f80bb2b638cc20bc4d0a60d66940f3ab4a00c1d7b313497ca82fb0b4ab00793006001600160a01b038316610aa8576040516322718ad960e21b81525f6004820152602401610583565b6001600160a01b039092165f908152600390920160205250604090205490565b6040518060800160405280605781526020016120d36057913981565b7f80bb2b638cc20bc4d0a60d66940f3ab4a00c1d7b313497ca82fb0b4ab007930180546060917f80bb2b638cc20bc4d0a60d66940f3ab4a00c1d7b313497ca82fb0b4ab00793009161048790611d13565b61055a338383610fc2565b610b4b84848461055e565b6105e684848484611084565b610b5f611813565b836001600160a01b0316610b72876106b8565b6001600160a01b031614610b8857610b88611f45565b610b9485848685610c27565b1515600114610ba557610ba5611f45565b610bad611813565b610bb561174e565b6002805460ff8916908110610bcc57610bcc611d4b565b5f9182526020909120015467ffffffffffffffff1681526002805460ff8916908110610bfa57610bfa611d4b565b5f9182526020918290200154600160401b900467ffffffffffffffff169082015281529695505050505050565b6040805160ff861660208201529081018490525f9081906060016040516020818303038152906040528051906020012090505f610c90827f19457468657265756d205369676e6564204d6573736167653a0a3332000000005f908152601c91909152603c902090565b90505f610c9d82866111aa565b6001600160a01b038781169116149350505050949350505050565b610cc3335f546111d2565b5f54610cd0906001611f6d565b5f55565b335f908152600660205260408120805460019290610cfd90849067ffffffffffffffff16611f80565b92506101000a81548167ffffffffffffffff021916908367ffffffffffffffff160217905550565b60606040518060800160405280605781526020016120d36057913992915050565b610d5c848367ffffffffffffffff168584610c27565b1515600114610d6d57610d6d611f45565b6001600160a01b0383165f90815260046020908152604080832067ffffffffffffffff8616845290915281205460ff16151590036105e6576001600160a01b0383165f90815260046020908152604080832067ffffffffffffffff861684528252808320805460ff1916600190811790915533845260059092528220805491929091610dfa908490611f6d565b909155505050505050565b5f8181527f80bb2b638cc20bc4d0a60d66940f3ab4a00c1d7b313497ca82fb0b4ab007930260205260408120546001600160a01b03168061044f57604051637e27328960e01b815260048101849052602401610583565b6106b383838360016111eb565b5f8281527f80bb2b638cc20bc4d0a60d66940f3ab4a00c1d7b313497ca82fb0b4ab007930260205260408120547f80bb2b638cc20bc4d0a60d66940f3ab4a00c1d7b313497ca82fb0b4ab0079300906001600160a01b0390811690841615610ed657610ed681858761135b565b6001600160a01b03811615610f1257610ef15f865f806111eb565b6001600160a01b0381165f908152600383016020526040902080545f190190555b6001600160a01b03861615610f42576001600160a01b0386165f9081526003830160205260409020805460010190555b5f858152600283016020526040808220805473ffffffffffffffffffffffffffffffffffffffff19166001600160a01b038a811691821790925591518893918516917fddf252ad1be2c89b69c2b068fc378daa952ba7f163c4a11628f55a4df523b3ef91a495945050505050565b610fb86113bf565b61055a828261140a565b7f80bb2b638cc20bc4d0a60d66940f3ab4a00c1d7b313497ca82fb0b4ab00793006001600160a01b03831661101557604051630b61174360e31b81526001600160a01b0384166004820152602401610583565b6001600160a01b038481165f818152600584016020908152604080832094881680845294825291829020805460ff191687151590811790915591519182527f17307eab39ab6107e8899845ad3d59bd9653f200f220920489ca2b5937696c31910160405180910390a350505050565b6001600160a01b0383163b156105e657604051630a85bd0160e11b81526001600160a01b0384169063150b7a02906110c6903390889087908790600401611fa8565b6020604051808303815f875af1925050508015611100575060408051601f3d908101601f191682019092526110fd91810190611fe3565b60015b611167573d80801561112d576040519150601f19603f3d011682016040523d82523d5f602084013e611132565b606091505b5080515f0361115f57604051633250574960e11b81526001600160a01b0385166004820152602401610583565b805181602001fd5b6001600160e01b03198116630a85bd0160e11b146111a357604051633250574960e11b81526001600160a01b0385166004820152602401610583565b5050505050565b5f805f806111b8868661144d565b9250925092506111c88282611496565b5090949350505050565b61055a828260405180602001604052805f81525061154e565b7f80bb2b638cc20bc4d0a60d66940f3ab4a00c1d7b313497ca82fb0b4ab0079300818061122057506001600160a01b03831615155b1561131e575f61122f85610e05565b90506001600160a01b0384161580159061125b5750836001600160a01b0316816001600160a01b031614155b80156112ab57506001600160a01b038082165f9081527f80bb2b638cc20bc4d0a60d66940f3ab4a00c1d7b313497ca82fb0b4ab0079305602090815260408083209388168352929052205460ff16155b156112d45760405163a9fbf51f60e01b81526001600160a01b0385166004820152602401610583565b821561131c5784866001600160a01b0316826001600160a01b03167f8c5be1e5ebec7d5bd14f71427d1e84f3dd0314c0f7b2291e5b200ac8c7c3b92560405160405180910390a45b505b5f938452600401602052505060409020805473ffffffffffffffffffffffffffffffffffffffff19166001600160a01b0392909216919091179055565b611366838383611564565b6106b3576001600160a01b03831661139457604051637e27328960e01b815260048101829052602401610583565b60405163177e802f60e01b81526001600160a01b038316600482015260248101829052604401610583565b7ff0c57e16840df040f15088dc2f81fe391c3923bec73e23a9662efc9c229c6a0054600160401b900460ff1661140857604051631afcd79f60e31b815260040160405180910390fd5b565b6114126113bf565b7f80bb2b638cc20bc4d0a60d66940f3ab4a00c1d7b313497ca82fb0b4ab00793008061143e8482611ffe565b50600181016105e68382611ffe565b5f805f8351604103611484576020840151604085015160608601515f1a61147688828585611625565b95509550955050505061148f565b505081515f91506002905b9250925092565b5f8260038111156114a9576114a96120be565b036114b2575050565b60018260038111156114c6576114c66120be565b036114e45760405163f645eedf60e01b815260040160405180910390fd5b60028260038111156114f8576114f86120be565b036115195760405163fce698f760e01b815260048101829052602401610583565b600382600381111561152d5761152d6120be565b0361055a576040516335e2f38360e21b815260048101829052602401610583565b61155883836116ed565b6106b35f848484611084565b5f6001600160a01b0383161580159061161d5750826001600160a01b0316846001600160a01b031614806115db57506001600160a01b038085165f9081527f80bb2b638cc20bc4d0a60d66940f3ab4a00c1d7b313497ca82fb0b4ab0079305602090815260408083209387168352929052205460ff165b8061161d57505f8281527f80bb2b638cc20bc4d0a60d66940f3ab4a00c1d7b313497ca82fb0b4ab007930460205260409020546001600160a01b038481169116145b949350505050565b5f80807f7fffffffffffffffffffffffffffffff5d576e7357a4501ddfe92f46681b20a084111561165e57505f915060039050826116e3565b604080515f808252602082018084528a905260ff891692820192909252606081018790526080810186905260019060a0016020604051602081039080840390855afa1580156116af573d5f803e3d5ffd5b5050604051601f1901519150506001600160a01b0381166116da57505f9250600191508290506116e3565b92505f91508190505b9450945094915050565b6001600160a01b03821661171657604051633250574960e11b81525f6004820152602401610583565b5f61172283835f610e69565b90506001600160a01b038116156106b3576040516339e3563760e11b81525f6004820152602401610583565b60405180604001604052806002906020820280368337509192915050565b600183019183908215611803579160200282015f5b838211156117cd57835183826101000a81548167ffffffffffffffff021916908367ffffffffffffffff1602179055509260200192600801602081600701049283019260010302611781565b80156118015782816101000a81549067ffffffffffffffff02191690556008016020816007010492830192600103026117cd565b505b5061180f92915061182b565b5090565b604051806020016040528061182661174e565b905290565b5b8082111561180f575f815560010161182c565b6001600160e01b031981168114611854575f80fd5b50565b5f60208284031215611867575f80fd5b81356118728161183f565b9392505050565b5f81518084525f5b8181101561189d57602081850181015186830182015201611881565b505f602082860101526020601f19601f83011685010191505092915050565b602081525f6118726020830184611879565b5f602082840312156118de575f80fd5b5035919050565b80356001600160a01b03811681146118fb575f80fd5b919050565b5f8060408385031215611911575f80fd5b61191a836118e5565b946020939093013593505050565b5f805f6060848603121561193a575f80fd5b611943846118e5565b9250611951602085016118e5565b9150604084013590509250925092565b5f60208284031215611971575f80fd5b611872826118e5565b5f8083601f84011261198a575f80fd5b50813567ffffffffffffffff8111156119a1575f80fd5b6020830191508360208285010111156119b8575f80fd5b9250929050565b5f805f805f606086880312156119d3575f80fd5b853567ffffffffffffffff808211156119ea575f80fd5b908701906060828a0312156119fd575f80fd5b90955060208701359080821115611a12575f80fd5b611a1e89838a0161197a565b90965094506040880135915080821115611a36575f80fd5b50611a438882890161197a565b969995985093965092949392505050565b5f8060408385031215611a65575f80fd5b611a6e836118e5565b915060208301358015158114611a82575f80fd5b809150509250929050565b634e487b7160e01b5f52604160045260245ffd5b5f82601f830112611ab0575f80fd5b813567ffffffffffffffff80821115611acb57611acb611a8d565b604051601f8301601f19908116603f01168101908282118183101715611af357611af3611a8d565b81604052838152866020858801011115611b0b575f80fd5b836020870160208301375f602085830101528094505050505092915050565b5f805f8060808587031215611b3d575f80fd5b611b46856118e5565b9350611b54602086016118e5565b925060408501359150606085013567ffffffffffffffff811115611b76575f80fd5b611b8287828801611aa1565b91505092959194509250565b803560ff811681146118fb575f80fd5b5f805f805f60a08688031215611bb2575f80fd5b85359450611bc260208701611b8e565b9350611bd0604087016118e5565b925060608601359150608086013567ffffffffffffffff811115611bf2575f80fd5b611bfe88828901611aa1565b9150509295509295909350565b81516040820190825f5b6002811015611c3e57825167ffffffffffffffff16825260209283019290910190600101611c15565b50505092915050565b5f805f8060808587031215611c5a575f80fd5b611c6385611b8e565b935060208501359250611c78604086016118e5565b9150606085013567ffffffffffffffff811115611b76575f80fd5b803567ffffffffffffffff811681146118fb575f80fd5b5f805f8060808587031215611cbd575f80fd5b611cc685611b8e565b9350611cd4602086016118e5565b9250611c7860408601611c93565b5f8060408385031215611cf3575f80fd5b611cfc836118e5565b9150611d0a602084016118e5565b90509250929050565b600181811c90821680611d2757607f821691505b602082108103611d4557634e487b7160e01b5f52602260045260245ffd5b50919050565b634e487b7160e01b5f52603260045260245ffd5b5f808335601e19843603018112611d74575f80fd5b83018035915067ffffffffffffffff821115611d8e575f80fd5b6020019150600581901b36038213156119b8575f80fd5b5f808335601e19843603018112611dba575f80fd5b83018035915067ffffffffffffffff821115611dd4575f80fd5b6020019150368190038213156119b8575f80fd5b601f8211156106b357805f5260205f20601f840160051c81016020851015611e0d5750805b601f840160051c820191505b818110156111a3575f8155600101611e19565b67ffffffffffffffff831115611e4457611e44611a8d565b611e5883611e528354611d13565b83611de8565b5f601f841160018114611e89575f8515611e725750838201355b5f19600387901b1c1916600186901b1783556111a3565b5f83815260208120601f198716915b82811015611eb85786850135825560209485019460019092019101611e98565b5086821015611ed4575f1960f88860031b161c19848701351681555b505060018560011b0183555050505050565b5f808335601e19843603018112611efb575f80fd5b83018035915067ffffffffffffffff821115611f15575f80fd5b6020019150600681901b36038213156119b8575f80fd5b5f60208284031215611f3c575f80fd5b61187282611c93565b634e487b7160e01b5f52600160045260245ffd5b634e487b7160e01b5f52601160045260245ffd5b8082018082111561044f5761044f611f59565b67ffffffffffffffff818116838216019080821115611fa157611fa1611f59565b5092915050565b5f6001600160a01b03808716835280861660208401525083604083015260806060830152611fd96080830184611879565b9695505050505050565b5f60208284031215611ff3575f80fd5b81516118728161183f565b815167ffffffffffffffff81111561201857612018611a8d565b61202c816120268454611d13565b84611de8565b602080601f83116001811461205f575f84156120485750858301515b5f19600386901b1c1916600185901b1785556120b6565b5f85815260208120601f198616915b8281101561208d5788860151825594840194600190910190840161206e565b50858210156120aa57878501515f19600388901b60f8161c191681555b505060018460011b0185555b505050505050565b634e487b7160e01b5f52602160045260245ffdfe697066733a2f2f62616679626569673337696f6972373673376d67356f6f6265746e636f6a636d3363336878617379643472766964346a71687934676b61686567342f3f66696c656e616d653d302d5055472e6a736f6ea164736f6c6343000816000a",
  "linkReferences": {},
  "deployedLinkReferences": {}
}